{
  "_format": "hh-sol-artifact-1",
  "contractName": "LoadedNodesTest",
  "sourceName": "contracts/Flat.sol",
  "abi": [
    {
      "inputs": [
        {
          "internalType": "address[]",
          "name": "payees",
          "type": "address[]"
        },
        {
          "internalType": "uint256[]",
          "name": "shares",
          "type": "uint256[]"
        },
        {
          "internalType": "address[]",
          "name": "addresses",
          "type": "address[]"
        },
        {
          "internalType": "uint256[]",
          "name": "balances",
          "type": "uint256[]"
        },
        {
          "internalType": "uint256[]",
          "name": "fees",
          "type": "uint256[]"
        },
        {
          "internalType": "uint256",
          "name": "swapAmount",
          "type": "uint256"
        },
        {
          "internalType": "address",
          "name": "uniV2Router",
          "type": "address"
        }
      ],
      "stateMutability": "nonpayable",
      "type": "constructor"
    },
    {
      "anonymous": false,
      "inputs": [
        {
          "indexed": true,
          "internalType": "address",
          "name": "owner",
          "type": "address"
        },
        {
          "indexed": true,
          "internalType": "address",
          "name": "spender",
          "type": "address"
        },
        {
          "indexed": false,
          "internalType": "uint256",
          "name": "value",
          "type": "uint256"
        }
      ],
      "name": "Approval",
      "type": "event"
    },
    {
      "anonymous": false,
      "inputs": [
        {
          "indexed": true,
          "internalType": "contract IERC20",
          "name": "token",
          "type": "address"
        },
        {
          "indexed": false,
          "internalType": "address",
          "name": "to",
          "type": "address"
        },
        {
          "indexed": false,
          "internalType": "uint256",
          "name": "amount",
          "type": "uint256"
        }
      ],
      "name": "ERC20PaymentReleased",
      "type": "event"
    },
    {
      "anonymous": false,
      "inputs": [
        {
          "indexed": true,
          "internalType": "address",
          "name": "newLiquidityWallet",
          "type": "address"
        },
        {
          "indexed": true,
          "internalType": "address",
          "name": "oldLiquidityWallet",
          "type": "address"
        }
      ],
      "name": "LiquidityWalletUpdated",
      "type": "event"
    },
    {
      "anonymous": false,
      "inputs": [
        {
          "indexed": true,
          "internalType": "address",
          "name": "previousOwner",
          "type": "address"
        },
        {
          "indexed": true,
          "internalType": "address",
          "name": "newOwner",
          "type": "address"
        }
      ],
      "name": "OwnershipTransferred",
      "type": "event"
    },
    {
      "anonymous": false,
      "inputs": [
        {
          "indexed": false,
          "internalType": "address",
          "name": "account",
          "type": "address"
        },
        {
          "indexed": false,
          "internalType": "uint256",
          "name": "shares",
          "type": "uint256"
        }
      ],
      "name": "PayeeAdded",
      "type": "event"
    },
    {
      "anonymous": false,
      "inputs": [
        {
          "indexed": false,
          "internalType": "address",
          "name": "from",
          "type": "address"
        },
        {
          "indexed": false,
          "internalType": "uint256",
          "name": "amount",
          "type": "uint256"
        }
      ],
      "name": "PaymentReceived",
      "type": "event"
    },
    {
      "anonymous": false,
      "inputs": [
        {
          "indexed": false,
          "internalType": "address",
          "name": "to",
          "type": "address"
        },
        {
          "indexed": false,
          "internalType": "uint256",
          "name": "amount",
          "type": "uint256"
        }
      ],
      "name": "PaymentReleased",
      "type": "event"
    },
    {
      "anonymous": false,
      "inputs": [
        {
          "indexed": true,
          "internalType": "address",
          "name": "pair",
          "type": "address"
        },
        {
          "indexed": true,
          "internalType": "bool",
          "name": "value",
          "type": "bool"
        }
      ],
      "name": "SetAutomatedMarketMakerPair",
      "type": "event"
    },
    {
      "anonymous": false,
      "inputs": [
        {
          "indexed": false,
          "internalType": "uint256",
          "name": "tokensSwapped",
          "type": "uint256"
        },
        {
          "indexed": false,
          "internalType": "uint256",
          "name": "ethReceived",
          "type": "uint256"
        },
        {
          "indexed": false,
          "internalType": "uint256",
          "name": "tokensIntoLiqudity",
          "type": "uint256"
        }
      ],
      "name": "SwapAndLiquify",
      "type": "event"
    },
    {
      "anonymous": false,
      "inputs": [
        {
          "indexed": true,
          "internalType": "address",
          "name": "from",
          "type": "address"
        },
        {
          "indexed": true,
          "internalType": "address",
          "name": "to",
          "type": "address"
        },
        {
          "indexed": false,
          "internalType": "uint256",
          "name": "value",
          "type": "uint256"
        }
      ],
      "name": "Transfer",
      "type": "event"
    },
    {
      "anonymous": false,
      "inputs": [
        {
          "indexed": true,
          "internalType": "address",
          "name": "newAddress",
          "type": "address"
        },
        {
          "indexed": true,
          "internalType": "address",
          "name": "oldAddress",
          "type": "address"
        }
      ],
      "name": "UpdateUniswapV2Router",
      "type": "event"
    },
    {
      "inputs": [
        {
          "internalType": "address",
          "name": "",
          "type": "address"
        }
      ],
      "name": "_isBlacklisted",
      "outputs": [
        {
          "internalType": "bool",
          "name": "",
          "type": "bool"
        }
      ],
      "stateMutability": "view",
      "type": "function"
    },
    {
      "inputs": [
        {
          "internalType": "address",
          "name": "",
          "type": "address"
        }
      ],
      "name": "_isSuper",
      "outputs": [
        {
          "internalType": "bool",
          "name": "",
          "type": "bool"
        }
      ],
      "stateMutability": "view",
      "type": "function"
    },
    {
      "inputs": [
        {
          "internalType": "address",
          "name": "owner",
          "type": "address"
        },
        {
          "internalType": "address",
          "name": "spender",
          "type": "address"
        }
      ],
      "name": "allowance",
      "outputs": [
        {
          "internalType": "uint256",
          "name": "",
          "type": "uint256"
        }
      ],
      "stateMutability": "view",
      "type": "function"
    },
    {
      "inputs": [
        {
          "internalType": "address",
          "name": "spender",
          "type": "address"
        },
        {
          "internalType": "uint256",
          "name": "amount",
          "type": "uint256"
        }
      ],
      "name": "approve",
      "outputs": [
        {
          "internalType": "bool",
          "name": "",
          "type": "bool"
        }
      ],
      "stateMutability": "nonpayable",
      "type": "function"
    },
    {
      "inputs": [
        {
          "internalType": "address",
          "name": "",
          "type": "address"
        }
      ],
      "name": "automatedMarketMakerPairs",
      "outputs": [
        {
          "internalType": "bool",
          "name": "",
          "type": "bool"
        }
      ],
      "stateMutability": "view",
      "type": "function"
    },
    {
      "inputs": [
        {
          "internalType": "address",
          "name": "account",
          "type": "address"
        }
      ],
      "name": "balanceOf",
      "outputs": [
        {
          "internalType": "uint256",
          "name": "",
          "type": "uint256"
        }
      ],
      "stateMutability": "view",
      "type": "function"
    },
    {
      "inputs": [
        {
          "internalType": "address",
          "name": "account",
          "type": "address"
        },
        {
          "internalType": "bool",
          "name": "value",
          "type": "bool"
        }
      ],
      "name": "blacklistMalicious",
      "outputs": [],
      "stateMutability": "nonpayable",
      "type": "function"
    },
    {
      "inputs": [
        {
          "internalType": "uint256",
          "name": "amount",
          "type": "uint256"
        }
      ],
      "name": "boostReward",
      "outputs": [],
      "stateMutability": "nonpayable",
      "type": "function"
    },
    {
      "inputs": [],
      "name": "cashoutAll",
      "outputs": [],
      "stateMutability": "nonpayable",
      "type": "function"
    },
    {
      "inputs": [],
      "name": "cashoutFee",
      "outputs": [
        {
          "internalType": "uint256",
          "name": "",
          "type": "uint256"
        }
      ],
      "stateMutability": "view",
      "type": "function"
    },
    {
      "inputs": [
        {
          "internalType": "uint256",
          "name": "blocktime",
          "type": "uint256"
        }
      ],
      "name": "cashoutReward",
      "outputs": [],
      "stateMutability": "nonpayable",
      "type": "function"
    },
    {
      "inputs": [
        {
          "internalType": "bool",
          "name": "newMode",
          "type": "bool"
        }
      ],
      "name": "changeAutoDistri",
      "outputs": [],
      "stateMutability": "nonpayable",
      "type": "function"
    },
    {
      "inputs": [
        {
          "internalType": "uint256",
          "name": "newTime",
          "type": "uint256"
        }
      ],
      "name": "changeClaimTime",
      "outputs": [],
      "stateMutability": "nonpayable",
      "type": "function"
    },
    {
      "inputs": [
        {
          "internalType": "uint256",
          "name": "newGasDistri",
          "type": "uint256"
        }
      ],
      "name": "changeGasDistri",
      "outputs": [],
      "stateMutability": "nonpayable",
      "type": "function"
    },
    {
      "inputs": [
        {
          "internalType": "uint256",
          "name": "newNodePrice",
          "type": "uint256"
        }
      ],
      "name": "changeNodePrice",
      "outputs": [],
      "stateMutability": "nonpayable",
      "type": "function"
    },
    {
      "inputs": [
        {
          "internalType": "uint256",
          "name": "newPrice",
          "type": "uint256"
        }
      ],
      "name": "changeRewardPerNode",
      "outputs": [],
      "stateMutability": "nonpayable",
      "type": "function"
    },
    {
      "inputs": [
        {
          "internalType": "bool",
          "name": "newVal",
          "type": "bool"
        }
      ],
      "name": "changeSwapLiquify",
      "outputs": [],
      "stateMutability": "nonpayable",
      "type": "function"
    },
    {
      "inputs": [
        {
          "internalType": "string",
          "name": "name",
          "type": "string"
        }
      ],
      "name": "createNodeWithTokens",
      "outputs": [],
      "stateMutability": "nonpayable",
      "type": "function"
    },
    {
      "inputs": [],
      "name": "decimals",
      "outputs": [
        {
          "internalType": "uint8",
          "name": "",
          "type": "uint8"
        }
      ],
      "stateMutability": "view",
      "type": "function"
    },
    {
      "inputs": [
        {
          "internalType": "address",
          "name": "spender",
          "type": "address"
        },
        {
          "internalType": "uint256",
          "name": "subtractedValue",
          "type": "uint256"
        }
      ],
      "name": "decreaseAllowance",
      "outputs": [
        {
          "internalType": "bool",
          "name": "",
          "type": "bool"
        }
      ],
      "stateMutability": "nonpayable",
      "type": "function"
    },
    {
      "inputs": [],
      "name": "distributeRewards",
      "outputs": [
        {
          "internalType": "uint256",
          "name": "",
          "type": "uint256"
        },
        {
          "internalType": "uint256",
          "name": "",
          "type": "uint256"
        },
        {
          "internalType": "uint256",
          "name": "",
          "type": "uint256"
        }
      ],
      "stateMutability": "nonpayable",
      "type": "function"
    },
    {
      "inputs": [],
      "name": "distributionPool",
      "outputs": [
        {
          "internalType": "address",
          "name": "",
          "type": "address"
        }
      ],
      "stateMutability": "view",
      "type": "function"
    },
    {
      "inputs": [],
      "name": "futurFee",
      "outputs": [
        {
          "internalType": "uint256",
          "name": "",
          "type": "uint256"
        }
      ],
      "stateMutability": "view",
      "type": "function"
    },
    {
      "inputs": [],
      "name": "futurUsePool",
      "outputs": [
        {
          "internalType": "address",
          "name": "",
          "type": "address"
        }
      ],
      "stateMutability": "view",
      "type": "function"
    },
    {
      "inputs": [],
      "name": "getAutoDistri",
      "outputs": [
        {
          "internalType": "bool",
          "name": "",
          "type": "bool"
        }
      ],
      "stateMutability": "view",
      "type": "function"
    },
    {
      "inputs": [],
      "name": "getClaimTime",
      "outputs": [
        {
          "internalType": "uint256",
          "name": "",
          "type": "uint256"
        }
      ],
      "stateMutability": "view",
      "type": "function"
    },
    {
      "inputs": [],
      "name": "getDistriCount",
      "outputs": [
        {
          "internalType": "uint256",
          "name": "",
          "type": "uint256"
        }
      ],
      "stateMutability": "view",
      "type": "function"
    },
    {
      "inputs": [],
      "name": "getGasDistri",
      "outputs": [
        {
          "internalType": "uint256",
          "name": "",
          "type": "uint256"
        }
      ],
      "stateMutability": "view",
      "type": "function"
    },
    {
      "inputs": [
        {
          "internalType": "address",
          "name": "account",
          "type": "address"
        }
      ],
      "name": "getNodeNumberOf",
      "outputs": [
        {
          "internalType": "uint256",
          "name": "",
          "type": "uint256"
        }
      ],
      "stateMutability": "view",
      "type": "function"
    },
    {
      "inputs": [],
      "name": "getNodePrice",
      "outputs": [
        {
          "internalType": "uint256",
          "name": "",
          "type": "uint256"
        }
      ],
      "stateMutability": "view",
      "type": "function"
    },
    {
      "inputs": [],
      "name": "getNodesCreatime",
      "outputs": [
        {
          "internalType": "string",
          "name": "",
          "type": "string"
        }
      ],
      "stateMutability": "view",
      "type": "function"
    },
    {
      "inputs": [],
      "name": "getNodesLastClaims",
      "outputs": [
        {
          "internalType": "string",
          "name": "",
          "type": "string"
        }
      ],
      "stateMutability": "view",
      "type": "function"
    },
    {
      "inputs": [],
      "name": "getNodesNames",
      "outputs": [
        {
          "internalType": "string",
          "name": "",
          "type": "string"
        }
      ],
      "stateMutability": "view",
      "type": "function"
    },
    {
      "inputs": [],
      "name": "getNodesRewards",
      "outputs": [
        {
          "internalType": "string",
          "name": "",
          "type": "string"
        }
      ],
      "stateMutability": "view",
      "type": "function"
    },
    {
      "inputs": [],
      "name": "getRewardAmount",
      "outputs": [
        {
          "internalType": "uint256",
          "name": "",
          "type": "uint256"
        }
      ],
      "stateMutability": "view",
      "type": "function"
    },
    {
      "inputs": [
        {
          "internalType": "address",
          "name": "account",
          "type": "address"
        }
      ],
      "name": "getRewardAmountOf",
      "outputs": [
        {
          "internalType": "uint256",
          "name": "",
          "type": "uint256"
        }
      ],
      "stateMutability": "view",
      "type": "function"
    },
    {
      "inputs": [],
      "name": "getRewardPerNode",
      "outputs": [
        {
          "internalType": "uint256",
          "name": "",
          "type": "uint256"
        }
      ],
      "stateMutability": "view",
      "type": "function"
    },
    {
      "inputs": [],
      "name": "getTotalCreatedNodes",
      "outputs": [
        {
          "internalType": "uint256",
          "name": "",
          "type": "uint256"
        }
      ],
      "stateMutability": "view",
      "type": "function"
    },
    {
      "inputs": [],
      "name": "getTotalStakedReward",
      "outputs": [
        {
          "internalType": "uint256",
          "name": "",
          "type": "uint256"
        }
      ],
      "stateMutability": "view",
      "type": "function"
    },
    {
      "inputs": [
        {
          "internalType": "address",
          "name": "spender",
          "type": "address"
        },
        {
          "internalType": "uint256",
          "name": "addedValue",
          "type": "uint256"
        }
      ],
      "name": "increaseAllowance",
      "outputs": [
        {
          "internalType": "bool",
          "name": "",
          "type": "bool"
        }
      ],
      "stateMutability": "nonpayable",
      "type": "function"
    },
    {
      "inputs": [
        {
          "internalType": "uint256",
          "name": "amount",
          "type": "uint256"
        }
      ],
      "name": "increaseLiquidityDistribution",
      "outputs": [],
      "stateMutability": "nonpayable",
      "type": "function"
    },
    {
      "inputs": [],
      "name": "liquidityPoolFee",
      "outputs": [
        {
          "internalType": "uint256",
          "name": "",
          "type": "uint256"
        }
      ],
      "stateMutability": "view",
      "type": "function"
    },
    {
      "inputs": [],
      "name": "maxTx",
      "outputs": [
        {
          "internalType": "uint256",
          "name": "",
          "type": "uint256"
        }
      ],
      "stateMutability": "view",
      "type": "function"
    },
    {
      "inputs": [],
      "name": "name",
      "outputs": [
        {
          "internalType": "string",
          "name": "",
          "type": "string"
        }
      ],
      "stateMutability": "view",
      "type": "function"
    },
    {
      "inputs": [],
      "name": "nodeRewardManager",
      "outputs": [
        {
          "internalType": "contract NODERewardManagement",
          "name": "",
          "type": "address"
        }
      ],
      "stateMutability": "view",
      "type": "function"
    },
    {
      "inputs": [],
      "name": "openTrading",
      "outputs": [],
      "stateMutability": "nonpayable",
      "type": "function"
    },
    {
      "inputs": [],
      "name": "owner",
      "outputs": [
        {
          "internalType": "address",
          "name": "",
          "type": "address"
        }
      ],
      "stateMutability": "view",
      "type": "function"
    },
    {
      "inputs": [
        {
          "internalType": "uint256",
          "name": "index",
          "type": "uint256"
        }
      ],
      "name": "payee",
      "outputs": [
        {
          "internalType": "address",
          "name": "",
          "type": "address"
        }
      ],
      "stateMutability": "view",
      "type": "function"
    },
    {
      "inputs": [],
      "name": "poolHandler",
      "outputs": [
        {
          "internalType": "address",
          "name": "",
          "type": "address"
        }
      ],
      "stateMutability": "view",
      "type": "function"
    },
    {
      "inputs": [],
      "name": "publiDistriRewards",
      "outputs": [],
      "stateMutability": "nonpayable",
      "type": "function"
    },
    {
      "inputs": [
        {
          "internalType": "address payable",
          "name": "account",
          "type": "address"
        }
      ],
      "name": "release",
      "outputs": [],
      "stateMutability": "nonpayable",
      "type": "function"
    },
    {
      "inputs": [
        {
          "internalType": "contract IERC20",
          "name": "token",
          "type": "address"
        },
        {
          "internalType": "address",
          "name": "account",
          "type": "address"
        }
      ],
      "name": "release",
      "outputs": [],
      "stateMutability": "nonpayable",
      "type": "function"
    },
    {
      "inputs": [
        {
          "internalType": "contract IERC20",
          "name": "token",
          "type": "address"
        },
        {
          "internalType": "address",
          "name": "account",
          "type": "address"
        }
      ],
      "name": "released",
      "outputs": [
        {
          "internalType": "uint256",
          "name": "",
          "type": "uint256"
        }
      ],
      "stateMutability": "view",
      "type": "function"
    },
    {
      "inputs": [
        {
          "internalType": "address",
          "name": "account",
          "type": "address"
        }
      ],
      "name": "released",
      "outputs": [
        {
          "internalType": "uint256",
          "name": "",
          "type": "uint256"
        }
      ],
      "stateMutability": "view",
      "type": "function"
    },
    {
      "inputs": [],
      "name": "renounceOwnership",
      "outputs": [],
      "stateMutability": "nonpayable",
      "type": "function"
    },
    {
      "inputs": [],
      "name": "rewardsFee",
      "outputs": [
        {
          "internalType": "uint256",
          "name": "",
          "type": "uint256"
        }
      ],
      "stateMutability": "view",
      "type": "function"
    },
    {
      "inputs": [],
      "name": "rwSwap",
      "outputs": [
        {
          "internalType": "uint256",
          "name": "",
          "type": "uint256"
        }
      ],
      "stateMutability": "view",
      "type": "function"
    },
    {
      "inputs": [
        {
          "internalType": "address",
          "name": "pair",
          "type": "address"
        },
        {
          "internalType": "bool",
          "name": "value",
          "type": "bool"
        }
      ],
      "name": "setAutomatedMarketMakerPair",
      "outputs": [],
      "stateMutability": "nonpayable",
      "type": "function"
    },
    {
      "inputs": [
        {
          "internalType": "address",
          "name": "account",
          "type": "address"
        },
        {
          "internalType": "bool",
          "name": "value",
          "type": "bool"
        }
      ],
      "name": "setIsSuper",
      "outputs": [],
      "stateMutability": "nonpayable",
      "type": "function"
    },
    {
      "inputs": [
        {
          "internalType": "address",
          "name": "nodeManagement",
          "type": "address"
        }
      ],
      "name": "setNodeManagement",
      "outputs": [],
      "stateMutability": "nonpayable",
      "type": "function"
    },
    {
      "inputs": [
        {
          "internalType": "address",
          "name": "account",
          "type": "address"
        }
      ],
      "name": "shares",
      "outputs": [
        {
          "internalType": "uint256",
          "name": "",
          "type": "uint256"
        }
      ],
      "stateMutability": "view",
      "type": "function"
    },
    {
      "inputs": [
        {
          "internalType": "uint256",
          "name": "_amount",
          "type": "uint256"
        }
      ],
      "name": "swapOld",
      "outputs": [],
      "stateMutability": "nonpayable",
      "type": "function"
    },
    {
      "inputs": [],
      "name": "swapTokensAmount",
      "outputs": [
        {
          "internalType": "uint256",
          "name": "",
          "type": "uint256"
        }
      ],
      "stateMutability": "view",
      "type": "function"
    },
    {
      "inputs": [],
      "name": "symbol",
      "outputs": [
        {
          "internalType": "string",
          "name": "",
          "type": "string"
        }
      ],
      "stateMutability": "view",
      "type": "function"
    },
    {
      "inputs": [],
      "name": "totalFees",
      "outputs": [
        {
          "internalType": "uint256",
          "name": "",
          "type": "uint256"
        }
      ],
      "stateMutability": "view",
      "type": "function"
    },
    {
      "inputs": [
        {
          "internalType": "contract IERC20",
          "name": "token",
          "type": "address"
        }
      ],
      "name": "totalReleased",
      "outputs": [
        {
          "internalType": "uint256",
          "name": "",
          "type": "uint256"
        }
      ],
      "stateMutability": "view",
      "type": "function"
    },
    {
      "inputs": [],
      "name": "totalReleased",
      "outputs": [
        {
          "internalType": "uint256",
          "name": "",
          "type": "uint256"
        }
      ],
      "stateMutability": "view",
      "type": "function"
    },
    {
      "inputs": [],
      "name": "totalShares",
      "outputs": [
        {
          "internalType": "uint256",
          "name": "",
          "type": "uint256"
        }
      ],
      "stateMutability": "view",
      "type": "function"
    },
    {
      "inputs": [],
      "name": "totalSupply",
      "outputs": [
        {
          "internalType": "uint256",
          "name": "",
          "type": "uint256"
        }
      ],
      "stateMutability": "view",
      "type": "function"
    },
    {
      "inputs": [
        {
          "internalType": "address",
          "name": "recipient",
          "type": "address"
        },
        {
          "internalType": "uint256",
          "name": "amount",
          "type": "uint256"
        }
      ],
      "name": "transfer",
      "outputs": [
        {
          "internalType": "bool",
          "name": "",
          "type": "bool"
        }
      ],
      "stateMutability": "nonpayable",
      "type": "function"
    },
    {
      "inputs": [
        {
          "internalType": "address",
          "name": "sender",
          "type": "address"
        },
        {
          "internalType": "address",
          "name": "recipient",
          "type": "address"
        },
        {
          "internalType": "uint256",
          "name": "amount",
          "type": "uint256"
        }
      ],
      "name": "transferFrom",
      "outputs": [
        {
          "internalType": "bool",
          "name": "",
          "type": "bool"
        }
      ],
      "stateMutability": "nonpayable",
      "type": "function"
    },
    {
      "inputs": [
        {
          "internalType": "address",
          "name": "newOwner",
          "type": "address"
        }
      ],
      "name": "transferOwnership",
      "outputs": [],
      "stateMutability": "nonpayable",
      "type": "function"
    },
    {
      "inputs": [],
      "name": "uniswapV2Pair",
      "outputs": [
        {
          "internalType": "address",
          "name": "",
          "type": "address"
        }
      ],
      "stateMutability": "view",
      "type": "function"
    },
    {
      "inputs": [],
      "name": "uniswapV2Router",
      "outputs": [
        {
          "internalType": "contract IJoeRouter02",
          "name": "",
          "type": "address"
        }
      ],
      "stateMutability": "view",
      "type": "function"
    },
    {
      "inputs": [
        {
          "internalType": "uint256",
          "name": "value",
          "type": "uint256"
        }
      ],
      "name": "updateCashoutFee",
      "outputs": [],
      "stateMutability": "nonpayable",
      "type": "function"
    },
    {
      "inputs": [
        {
          "internalType": "uint256",
          "name": "value",
          "type": "uint256"
        }
      ],
      "name": "updateFuturFee",
      "outputs": [],
      "stateMutability": "nonpayable",
      "type": "function"
    },
    {
      "inputs": [
        {
          "internalType": "address payable",
          "name": "wall",
          "type": "address"
        }
      ],
      "name": "updateFuturWall",
      "outputs": [],
      "stateMutability": "nonpayable",
      "type": "function"
    },
    {
      "inputs": [
        {
          "internalType": "uint256",
          "name": "value",
          "type": "uint256"
        }
      ],
      "name": "updateLiquiditFee",
      "outputs": [],
      "stateMutability": "nonpayable",
      "type": "function"
    },
    {
      "inputs": [
        {
          "internalType": "uint256",
          "name": "newMaxTx",
          "type": "uint256"
        }
      ],
      "name": "updateMaxTx",
      "outputs": [],
      "stateMutability": "nonpayable",
      "type": "function"
    },
    {
      "inputs": [
        {
          "internalType": "uint256",
          "name": "value",
          "type": "uint256"
        }
      ],
      "name": "updateRewardsFee",
      "outputs": [],
      "stateMutability": "nonpayable",
      "type": "function"
    },
    {
      "inputs": [
        {
          "internalType": "address payable",
          "name": "wall",
          "type": "address"
        }
      ],
      "name": "updateRewardsWall",
      "outputs": [],
      "stateMutability": "nonpayable",
      "type": "function"
    },
    {
      "inputs": [
        {
          "internalType": "uint256",
          "name": "value",
          "type": "uint256"
        }
      ],
      "name": "updateRwSwapFee",
      "outputs": [],
      "stateMutability": "nonpayable",
      "type": "function"
    },
    {
      "inputs": [
        {
          "internalType": "uint256",
          "name": "newVal",
          "type": "uint256"
        }
      ],
      "name": "updateSwapTokensAmount",
      "outputs": [],
      "stateMutability": "nonpayable",
      "type": "function"
    },
    {
      "inputs": [
        {
          "internalType": "address",
          "name": "newAddress",
          "type": "address"
        }
      ],
      "name": "updateUniswapV2Router",
      "outputs": [],
      "stateMutability": "nonpayable",
      "type": "function"
    },
    {
      "stateMutability": "payable",
      "type": "receive"
    }
  ],
  "bytecode": "0x60806040526019805461ffff19166101001790556000601b55601c805460ff191690553480156200002f57600080fd5b50604051620059a5380380620059a5833981016040819052620000529162000b79565b6040805180820182526005808252642827a620a960d91b6020808401828152855180870190965292855284015281518a938a939290916200009691600391620009d2565b508051620000ac906004906020840190620009d2565b5050506000620000c16200077660201b60201c565b600580546001600160a01b0319166001600160a01b038316908117909155604051919250906000907f8be0079c531659141344cd1fd0a4f28419497f9722a3daafe3b4186f6b6457e0908290a3508051825114620001815760405162461bcd60e51b815260206004820152603260248201527f5061796d656e7453706c69747465723a2070617965657320616e6420736861726044820152710cae640d8cadccee8d040dad2e6dac2e8c6d60731b60648201526084015b60405180910390fd5b6000825111620001d45760405162461bcd60e51b815260206004820152601a60248201527f5061796d656e7453706c69747465723a206e6f20706179656573000000000000604482015260640162000178565b60005b82518110156200025857620002438382815181106200020657634e487b7160e01b600052603260045260246000fd5b60200260200101518383815181106200022f57634e487b7160e01b600052603260045260246000fd5b60200260200101516200077a60201b60201c565b806200024f8162000d21565b915050620001d7565b505050846001815181106200027d57634e487b7160e01b600052603260045260246000fd5b6020026020010151601060006101000a8154816001600160a01b0302191690836001600160a01b0316021790555084600281518110620002cd57634e487b7160e01b600052603260045260246000fd5b6020026020010151601160006101000a8154816001600160a01b0302191690836001600160a01b03160217905550846003815181106200031d57634e487b7160e01b600052603260045260246000fd5b6020908102919091010151601280546001600160a01b0319166001600160a01b0392831617905560105416158015906200036157506011546001600160a01b031615155b80156200037857506012546001600160a01b031615155b620003da5760405162461bcd60e51b815260206004820152602b60248201527f46555455522c20524557415244202620504f4f4c20414444524553532043414e60448201526a4e4f54204245205a45524f60a81b606482015260840162000178565b6001600160a01b038116620004325760405162461bcd60e51b815260206004820152601560248201527f524f555445522043414e4e4f54204245205a45524f0000000000000000000000604482015260640162000178565b826000815181106200045457634e487b7160e01b600052603260045260246000fd5b6020026020010151600014158015620004975750826001815181106200048a57634e487b7160e01b600052603260045260246000fd5b6020026020010151600014155b8015620004ce575082600281518110620004c157634e487b7160e01b600052603260045260246000fd5b6020026020010151600014155b801562000505575082600381518110620004f857634e487b7160e01b600052603260045260246000fd5b6020026020010151600014155b620005535760405162461bcd60e51b815260206004820152601460248201527f434f4e5354523a204665657320657175616c2030000000000000000000000000604482015260640162000178565b826000815181106200057557634e487b7160e01b600052603260045260246000fd5b602002602001015160158190555082600181518110620005a557634e487b7160e01b600052603260045260246000fd5b602002602001015160138190555082600281518110620005d557634e487b7160e01b600052603260045260246000fd5b6020026020010151601481905550826003815181106200060557634e487b7160e01b600052603260045260246000fd5b6020026020010151601781905550826004815181106200063557634e487b7160e01b600052603260045260246000fd5b60200260200101516018819055506200067c601554620006686014546013546200096860201b620035fe1790919060201c565b6200096860201b620035fe1790919060201c565b60165584511580159062000691575060008451115b620007055760405162461bcd60e51b815260206004820152603860248201527f434f4e5354523a20616464726573736573206172726179206c656e677468206d60448201527f7573742062652067726561746572207468616e207a65726f0000000000000000606482015260840162000178565b8351855114620007695760405162461bcd60e51b815260206004820152602860248201527f434f4e5354523a2061646472657373657320617272617973206c656e677468206044820152670dad2e6dac2e8c6d60c31b606482015260840162000178565b5050505050505062000d6b565b3390565b6001600160a01b038216620007e75760405162461bcd60e51b815260206004820152602c60248201527f5061796d656e7453706c69747465723a206163636f756e74206973207468652060448201526b7a65726f206164647265737360a01b606482015260840162000178565b60008111620008395760405162461bcd60e51b815260206004820152601d60248201527f5061796d656e7453706c69747465723a20736861726573206172652030000000604482015260640162000178565b6001600160a01b03821660009081526008602052604090205415620008b55760405162461bcd60e51b815260206004820152602b60248201527f5061796d656e7453706c69747465723a206163636f756e7420616c726561647960448201526a206861732073686172657360a81b606482015260840162000178565b600a8054600181019091557fc65a7bb8d6351c1cf70c95a316cc6a92839c986682d98bc35f958f4883f9d2a80180546001600160a01b0319166001600160a01b03841690811790915560009081526008602052604090208190556006546200091f90829062000cc9565b600655604080516001600160a01b0384168152602081018390527f40c340f65e17194d14ddddb073d3c9f888e3cb52b5aae0c6c7706b4fbc905fac910160405180910390a15050565b60008062000977838562000cc9565b905083811015620009cb5760405162461bcd60e51b815260206004820152601b60248201527f536166654d6174683a206164646974696f6e206f766572666c6f770000000000604482015260640162000178565b9392505050565b828054620009e09062000ce4565b90600052602060002090601f01602090048101928262000a04576000855562000a4f565b82601f1062000a1f57805160ff191683800117855562000a4f565b8280016001018555821562000a4f579182015b8281111562000a4f57825182559160200191906001019062000a32565b5062000a5d92915062000a61565b5090565b5b8082111562000a5d576000815560010162000a62565b80516001600160a01b038116811462000a9057600080fd5b919050565b600082601f83011262000aa6578081fd5b8151602062000abf62000ab98362000ca3565b62000c70565b80838252828201915082860187848660051b890101111562000adf578586fd5b855b8581101562000b085762000af58262000a78565b8452928401929084019060010162000ae1565b5090979650505050505050565b600082601f83011262000b26578081fd5b8151602062000b3962000ab98362000ca3565b80838252828201915082860187848660051b890101111562000b59578586fd5b855b8581101562000b085781518452928401929084019060010162000b5b565b600080600080600080600060e0888a03121562000b94578283fd5b87516001600160401b038082111562000bab578485fd5b62000bb98b838c0162000a95565b985060208a015191508082111562000bcf578485fd5b62000bdd8b838c0162000b15565b975060408a015191508082111562000bf3578485fd5b62000c018b838c0162000a95565b965060608a015191508082111562000c17578485fd5b62000c258b838c0162000b15565b955060808a015191508082111562000c3b578485fd5b5062000c4a8a828b0162000b15565b93505060a0880151915062000c6260c0890162000a78565b905092959891949750929550565b604051601f8201601f191681016001600160401b038111828210171562000c9b5762000c9b62000d55565b604052919050565b60006001600160401b0382111562000cbf5762000cbf62000d55565b5060051b60200190565b6000821982111562000cdf5762000cdf62000d3f565b500190565b600181811c9082168062000cf957607f821691505b6020821081141562000d1b57634e487b7160e01b600052602260045260246000fd5b50919050565b600060001982141562000d385762000d3862000d3f565b5060010190565b634e487b7160e01b600052601160045260246000fd5b634e487b7160e01b600052604160045260246000fd5b614c2a8062000d7b6000396000f3fe6080604052600436106104a35760003560e01c80638743ef6d11610260578063c2d0ffca11610144578063dd62ed3e116100c1578063f598194911610085578063f598194914610ec6578063f5a0725614610edc578063f74c993414610ef1578063f7b9f94314610f11578063f9afc76314610f26578063fb0a749414610f3b57600080fd5b8063dd62ed3e14610e16578063e33b7de314610e5c578063e3e0df2914610e71578063ee1afdbf14610e91578063f2fde38b14610ea657600080fd5b8063d0f7747411610108578063d0f7747414610d76578063d79779b214610d96578063d892934214610dcc578063da41b33314610dec578063db3ad6b514610e0157600080fd5b8063c2d0ffca14610ccb578063c5ca7d6d14610ceb578063c9567bf914610d0b578063c9a3446814610d20578063ce7c2ac214610d4057600080fd5b80639c82751c116101dd578063a9059cbb116101a1578063a9059cbb14610c10578063ab57476114610c30578063b5f8b72914610c46578063b62496f514610c66578063b96392c114610c96578063bdf24a5314610cb657600080fd5b80639c82751c14610b86578063a0a8fe6514610ba6578063a457c2d714610bbb578063a5021a1714610bdb578063a538ddf214610bf057600080fd5b80638f0ba4ca116102245780638f0ba4ca14610adb5780639349c47d14610afb57806395d89b4114610b1b5780639852595c14610b305780639a7a23d614610b6657600080fd5b80638743ef6d14610a4857806388c41d7c14610a5d5780638b83209b14610a7d5780638bc9c7b014610a9d5780638da5cb5b14610abd57600080fd5b806348b750441161038757806365bfe4301161030457806370a08231116102c857806370a0823114610987578063715018a6146109bd5780637437681e146109d25780637628b3d7146109e85780637b77039214610a085780638013858b14610a2857600080fd5b806365bfe430146108e15780636770474b146109015780636815a91c146109215780636d9ae0be146109415780636f4a2cd01461095757600080fd5b8063583bd7a61161034b578063583bd7a61461085657806359640ed9146108765780635b0d4674146108965780635f1c3182146108ab57806365b8dbc0146108c157600080fd5b806348b75044146107d657806348e5642b146107f657806349bd5a5e1461080b578063545579731461082b57806354f12f1f1461084057600080fd5b80631916558711610420578063313ce567116103e4578063313ce567146106ff578063395093511461071b5780633a98ef391461073b578063406072a9146107505780634195fbf31461079657806342bc9fca146107b657600080fd5b806319165587146106595780631cdd3be31461067957806323b872dd146106a95780632a607841146106c95780632bb14e1d146106e957600080fd5b80630f512fc7116104675780630f512fc7146105b157806313114a9d146105e1578063138a634a146105f75780631694505e1461060c57806318160ddd1461064457600080fd5b806306fdde03146104f1578063084a6bff1461051c578063095ea7b31461053e57806309a69f571461056e5780630c08f3001461059157600080fd5b366104ec577f6ef95f06320e7a25a04a175ca677b7052bdd97131872c2192525a629f51be77033604080516001600160a01b0390921682523460208301520160405180910390a1005b600080fd5b3480156104fd57600080fd5b50610506610f5b565b60405161051391906147de565b60405180910390f35b34801561052857600080fd5b5061053c610537366004614715565b610fed565b005b34801561054a57600080fd5b5061055e6105593660046145bd565b611047565b6040519015158152602001610513565b34801561057a57600080fd5b5061058361105e565b604051908152602001610513565b34801561059d57600080fd5b5061053c6105ac3660046144e0565b6111b0565b3480156105bd57600080fd5b5061055e6105cc3660046144e0565b601f6020526000908152604090205460ff1681565b3480156105ed57600080fd5b5061058360165481565b34801561060357600080fd5b506105066111fc565b34801561061857600080fd5b50600e5461062c906001600160a01b031681565b6040516001600160a01b039091168152602001610513565b34801561065057600080fd5b50600254610583565b34801561066557600080fd5b5061053c6106743660046144e0565b61134e565b34801561068557600080fd5b5061055e6106943660046144e0565b601d6020526000908152604090205460ff1681565b3480156106b557600080fd5b5061055e6106c4366004614550565b61147c565b3480156106d557600080fd5b5060125461062c906001600160a01b031681565b3480156106f557600080fd5b5061058360135481565b34801561070b57600080fd5b5060405160128152602001610513565b34801561072757600080fd5b5061055e6107363660046145bd565b6114e6565b34801561074757600080fd5b50600654610583565b34801561075c57600080fd5b5061058361076b366004614620565b6001600160a01b039182166000908152600c6020908152604080832093909416825291909152205490565b3480156107a257600080fd5b5061053c6107b1366004614715565b61151c565b3480156107c257600080fd5b5061053c6107d1366004614715565b61158f565b3480156107e257600080fd5b5061053c6107f1366004614620565b6115d3565b34801561080257600080fd5b506105836117bb565b34801561081757600080fd5b50600f5461062c906001600160a01b031681565b34801561083757600080fd5b5061053c611800565b34801561084c57600080fd5b5061058360145481565b34801561086257600080fd5b5061053c6108713660046145e8565b611b6a565b34801561088257600080fd5b5061053c610891366004614715565b611bae565b3480156108a257600080fd5b50610506611c3a565b3480156108b757600080fd5b50610583601a5481565b3480156108cd57600080fd5b5061053c6108dc3660046144e0565b611d15565b3480156108ed57600080fd5b5061053c6108fc366004614715565b611fb1565b34801561090d57600080fd5b5061053c61091c366004614715565b6122f6565b34801561092d57600080fd5b5061053c61093c366004614715565b612325565b34801561094d57600080fd5b5061058360175481565b34801561096357600080fd5b5061096c612354565b60408051938452602084019290925290820152606001610513565b34801561099357600080fd5b506105836109a23660046144e0565b6001600160a01b031660009081526020819052604090205490565b3480156109c957600080fd5b5061053c612418565b3480156109de57600080fd5b50610583601b5481565b3480156109f457600080fd5b50600d5461062c906001600160a01b031681565b348015610a1457600080fd5b5061053c610a23366004614715565b61248c565b348015610a3457600080fd5b5061053c610a43366004614715565b6124e7565b348015610a5457600080fd5b5061053c612542565b348015610a6957600080fd5b5061053c610a78366004614715565b6125ca565b348015610a8957600080fd5b5061062c610a98366004614715565b61260e565b348015610aa957600080fd5b5061053c610ab8366004614715565b61264c565b348015610ac957600080fd5b506005546001600160a01b031661062c565b348015610ae757600080fd5b5061053c610af6366004614632565b61267b565b348015610b0757600080fd5b5061053c610b163660046144e0565b612b47565b348015610b2757600080fd5b50610506612b93565b348015610b3c57600080fd5b50610583610b4b3660046144e0565b6001600160a01b031660009081526009602052604090205490565b348015610b7257600080fd5b5061053c610b81366004614590565b612ba2565b348015610b9257600080fd5b5061053c610ba1366004614715565b612c6d565b348015610bb257600080fd5b50610583612cc8565b348015610bc757600080fd5b5061055e610bd63660046145bd565b612d0d565b348015610be757600080fd5b50610583612d5c565b348015610bfc57600080fd5b5060105461062c906001600160a01b031681565b348015610c1c57600080fd5b5061055e610c2b3660046145bd565b612da1565b348015610c3c57600080fd5b5061058360155481565b348015610c5257600080fd5b5061053c610c61366004614715565b612dae565b348015610c7257600080fd5b5061055e610c813660046144e0565b601e6020526000908152604090205460ff1681565b348015610ca257600080fd5b50610583610cb13660046144e0565b612e32565b348015610cc257600080fd5b50610506612edd565b348015610cd757600080fd5b5061053c610ce6366004614715565b612fb8565b348015610cf757600080fd5b5060115461062c906001600160a01b031681565b348015610d1757600080fd5b5061053c612fe7565b348015610d2c57600080fd5b5061053c610d3b366004614590565b613073565b348015610d4c57600080fd5b50610583610d5b3660046144e0565b6001600160a01b031660009081526008602052604090205490565b348015610d8257600080fd5b5061053c610d913660046145e8565b6130c8565b348015610da257600080fd5b50610583610db13660046144e0565b6001600160a01b03166000908152600b602052604090205490565b348015610dd857600080fd5b5061053c610de7366004614590565b613124565b348015610df857600080fd5b50610583613179565b348015610e0d57600080fd5b506105836131be565b348015610e2257600080fd5b50610583610e31366004614518565b6001600160a01b03918216600090815260016020908152604080832093909416825291909152205490565b348015610e6857600080fd5b50600754610583565b348015610e7d57600080fd5b5061053c610e8c366004614715565b613203565b348015610e9d57600080fd5b506105066132b2565b348015610eb257600080fd5b5061053c610ec13660046144e0565b61338d565b348015610ed257600080fd5b5061058360185481565b348015610ee857600080fd5b50610583613478565b348015610efd57600080fd5b50610583610f0c3660046144e0565b6134bd565b348015610f1d57600080fd5b506105836134f0565b348015610f3257600080fd5b5061055e613535565b348015610f4757600080fd5b5061053c610f563660046144e0565b6135b2565b606060038054610f6a90614af7565b80601f0160208091040260200160405190810160405280929190818152602001828054610f9690614af7565b8015610fe35780601f10610fb857610100808354040283529160200191610fe3565b820191906000526020600020905b815481529060010190602001808311610fc657829003601f168201915b5050505050905090565b6005546001600160a01b031633146110205760405162461bcd60e51b81526004016110179061491a565b60405180910390fd5b6013819055601554601454611041919061103b9084906135fe565b906135fe565b60165550565b600061105433848461365d565b5060015b92915050565b60003361107d5760405162461bcd60e51b81526004016110179061485b565b600d546001600160a01b03166341ac82b0336040516001600160e01b031960e084901b1681526001600160a01b03909116600482015260240160206040518083038186803b1580156110ce57600080fd5b505afa1580156110e2573d6000803e3d6000fd5b505050506040513d601f19601f820116820180604052508101906111069190614604565b6111225760405162461bcd60e51b815260040161101790614834565b600d546001600160a01b031663619a635e336040516001600160e01b031960e084901b1681526001600160a01b03909116600482015260240160206040518083038186803b15801561117357600080fd5b505afa158015611187573d6000803e3d6000fd5b505050506040513d601f19601f820116820180604052508101906111ab919061472d565b905090565b6005546001600160a01b031633146111da5760405162461bcd60e51b81526004016110179061491a565b601080546001600160a01b0319166001600160a01b0392909216919091179055565b60603361121b5760405162461bcd60e51b81526004016110179061485b565b600d546001600160a01b03166341ac82b0336040516001600160e01b031960e084901b1681526001600160a01b03909116600482015260240160206040518083038186803b15801561126c57600080fd5b505afa158015611280573d6000803e3d6000fd5b505050506040513d601f19601f820116820180604052508101906112a49190614604565b6112c05760405162461bcd60e51b815260040161101790614834565b600d546001600160a01b031663334de3a2335b6040516001600160e01b031960e084901b1681526001600160a01b03909116600482015260240160006040518083038186803b15801561131257600080fd5b505afa158015611326573d6000803e3d6000fd5b505050506040513d6000823e601f3d908101601f191682016040526111ab91908101906146ab565b6001600160a01b0381166000908152600860205260409020546113835760405162461bcd60e51b815260040161101790614889565b600061138e60075490565b6113989047614a5d565b905060006113c583836113c0866001600160a01b031660009081526009602052604090205490565b613782565b9050806113e45760405162461bcd60e51b8152600401611017906148cf565b6001600160a01b0383166000908152600960205260408120805483929061140c908490614a5d565b9250508190555080600760008282546114259190614a5d565b90915550611435905083826137c8565b604080516001600160a01b0385168152602081018390527fdf20fd1e76bc69d672e4814fafb2c449bba3a5369d8359adf9e05e6fde87b056910160405180910390a1505050565b60006114898484846138e1565b6114db84336114d685604051806060016040528060288152602001614ba8602891396001600160a01b038a1660009081526001602090815260408083203384529091529020549190613b5f565b61365d565b5060015b9392505050565b3360008181526001602090815260408083206001600160a01b038716845290915281205490916110549185906114d690866135fe565b6005546001600160a01b031633146115465760405162461bcd60e51b81526004016110179061491a565b478111156115515750475b6005546040516001600160a01b039091169082156108fc029083906000818181858888f1935050505015801561158b573d6000803e3d6000fd5b5050565b6005546001600160a01b031633146115b95760405162461bcd60e51b81526004016110179061491a565b6014819055601554601354611041919061103b90846135fe565b6001600160a01b0381166000908152600860205260409020546116085760405162461bcd60e51b815260040161101790614889565b6001600160a01b0382166000908152600b60205260408120546040516370a0823160e01b81523060048201526001600160a01b038516906370a082319060240160206040518083038186803b15801561166057600080fd5b505afa158015611674573d6000803e3d6000fd5b505050506040513d601f19601f82011682018060405250810190611698919061472d565b6116a29190614a5d565b905060006116db83836113c087876001600160a01b039182166000908152600c6020908152604080832093909416825291909152205490565b9050806116fa5760405162461bcd60e51b8152600401611017906148cf565b6001600160a01b038085166000908152600c6020908152604080832093871683529290529081208054839290611731908490614a5d565b90915550506001600160a01b0384166000908152600b60205260408120805483929061175e908490614a5d565b9091555061176f9050848483613b99565b604080516001600160a01b038581168252602082018490528616917f3be5b7a71e84ed12875d241991c70855ac5817d847039e17a9d895c1ceb0f18a910160405180910390a250505050565b600d54604080516345193f5560e11b815290516000926001600160a01b031691638a327eaa916004808301926020929190829003018186803b15801561117357600080fd5b33806118625760405162461bcd60e51b815260206004820152602b60248201527f4d414e494120435348543a20206372656174696f6e2066726f6d20746865207a60448201526a65726f206164647265737360a81b6064820152608401611017565b6001600160a01b0381166000908152601d602052604090205460ff16156118cb5760405162461bcd60e51b815260206004820152601f60248201527f4d414e494120435348543a20426c61636b6c69737465642061646472657373006044820152606401611017565b6010546001600160a01b038281169116148015906118f757506011546001600160a01b03828116911614155b6119695760405162461bcd60e51b815260206004820152603860248201527f4d414e494120435348543a20667574757220616e642072657761726473506f6f60448201527f6c2063616e6e6f7420636173686f7574207265776172647300000000000000006064820152608401611017565b600d546040516330cd31af60e11b81526001600160a01b038381166004830152600092169063619a635e9060240160206040518083038186803b1580156119af57600080fd5b505afa1580156119c3573d6000803e3d6000fd5b505050506040513d601f19601f820116820180604052508101906119e7919061472d565b905060008111611a565760405162461bcd60e51b815260206004820152603460248201527f4d414e494120435348543a20596f7520646f6e2774206861766520656e6f75676044820152731a081c995dd85c99081d1bc818d85cda081bdd5d60621b6064820152608401611017565b601954610100900460ff1615611acf5760175460009015611ac157611a916064611a8b60175485613beb90919063ffffffff16565b90613c6a565b601154909150611aab906001600160a01b03163083613cac565b601054611ac1906001600160a01b031682613db5565b611acb8183614ab4565b9150505b601154611ae6906001600160a01b03168383613cac565b600d5460405163170a62c760e21b81526001600160a01b03848116600483015290911690635c298b1c90602401602060405180830381600087803b158015611b2d57600080fd5b505af1158015611b41573d6000803e3d6000fd5b505050506040513d601f19601f82011682018060405250810190611b65919061472d565b505050565b6005546001600160a01b03163314611b945760405162461bcd60e51b81526004016110179061491a565b601980549115156101000261ff0019909216919091179055565b6005546001600160a01b03163314611bd85760405162461bcd60e51b81526004016110179061491a565b600d54604051631df3773160e31b8152600481018390526001600160a01b039091169063ef9bb988906024015b600060405180830381600087803b158015611c1f57600080fd5b505af1158015611c33573d6000803e3d6000fd5b5050505050565b606033611c595760405162461bcd60e51b81526004016110179061485b565b600d546001600160a01b03166341ac82b0336040516001600160e01b031960e084901b1681526001600160a01b03909116600482015260240160206040518083038186803b158015611caa57600080fd5b505afa158015611cbe573d6000803e3d6000fd5b505050506040513d601f19601f82011682018060405250810190611ce29190614604565b611cfe5760405162461bcd60e51b815260040161101790614834565b600d546001600160a01b0316634a389fae336112d3565b6005546001600160a01b03163314611d3f5760405162461bcd60e51b81526004016110179061491a565b600e546001600160a01b0382811691161415611dae5760405162461bcd60e51b815260206004820152602860248201527f544b4e3a2054686520726f7574657220616c7265616479206861732074686174604482015267206164647265737360c01b6064820152608401611017565b600e546040516001600160a01b03918216918316907f8fc842bbd331dfa973645f4ed48b11683d501ebf1352708d77a5da2ab49a576e90600090a3600e80546001600160a01b0319166001600160a01b0383169081179091556040805163c45a015560e01b815290516000929163c45a0155916004808301926020929190829003018186803b158015611e4057600080fd5b505afa158015611e54573d6000803e3d6000fd5b505050506040513d601f19601f82011682018060405250810190611e7891906144fc565b6001600160a01b031663c9c6539630600e60009054906101000a90046001600160a01b03166001600160a01b03166373b295c26040518163ffffffff1660e01b815260040160206040518083038186803b158015611ed557600080fd5b505afa158015611ee9573d6000803e3d6000fd5b505050506040513d601f19601f82011682018060405250810190611f0d91906144fc565b6040516001600160e01b031960e085901b1681526001600160a01b03928316600482015291166024820152604401602060405180830381600087803b158015611f5557600080fd5b505af1158015611f69573d6000803e3d6000fd5b505050506040513d601f19601f82011682018060405250810190611f8d91906144fc565b600f80546001600160a01b0319166001600160a01b03929092169190911790555050565b338061200d5760405162461bcd60e51b815260206004820152602560248201527f435348543a20206372656174696f6e2066726f6d20746865207a65726f206164604482015264647265737360d81b6064820152608401611017565b6001600160a01b0381166000908152601d602052604090205460ff16156120765760405162461bcd60e51b815260206004820152601f60248201527f4d414e494120435348543a20426c61636b6c69737465642061646472657373006044820152606401611017565b6010546001600160a01b038281169116148015906120a257506011546001600160a01b03828116911614155b6121095760405162461bcd60e51b815260206004820152603260248201527f435348543a20667574757220616e642072657761726473506f6f6c2063616e6e6044820152716f7420636173686f7574207265776172647360701b6064820152608401611017565b600d546040516329b8573160e21b81526001600160a01b03838116600483015260248201859052600092169063a6e15cc49060440160206040518083038186803b15801561215657600080fd5b505afa15801561216a573d6000803e3d6000fd5b505050506040513d601f19601f8201168201806040525081019061218e919061472d565b9050600081116121f75760405162461bcd60e51b815260206004820152602e60248201527f435348543a20596f7520646f6e2774206861766520656e6f756768207265776160448201526d1c99081d1bc818d85cda081bdd5d60921b6064820152608401611017565b601954610100900460ff161561225357601754600090156122455761222c6064611a8b60175485613beb90919063ffffffff16565b601054909150612245906001600160a01b031682613db5565b61224f8183614ab4565b9150505b60115461226a906001600160a01b03168383613cac565b600d5460405163376db80160e11b81526001600160a01b0384811660048301526024820186905290911690636edb700290604401602060405180830381600087803b1580156122b857600080fd5b505af11580156122cc573d6000803e3d6000fd5b505050506040513d601f19601f820116820180604052508101906122f0919061472d565b50505050565b6005546001600160a01b031633146123205760405162461bcd60e51b81526004016110179061491a565b601a55565b6005546001600160a01b0316331461234f5760405162461bcd60e51b81526004016110179061491a565b601755565b600554600090819081906001600160a01b031633146123855760405162461bcd60e51b81526004016110179061491a565b600d60009054906101000a90046001600160a01b03166001600160a01b03166388fe65536040518163ffffffff1660e01b8152600401606060405180830381600087803b1580156123d557600080fd5b505af11580156123e9573d6000803e3d6000fd5b505050506040513d601f19601f8201168201806040525081019061240d9190614745565b925092509250909192565b6005546001600160a01b031633146124425760405162461bcd60e51b81526004016110179061491a565b6005546040516000916001600160a01b0316907f8be0079c531659141344cd1fd0a4f28419497f9722a3daafe3b4186f6b6457e0908390a3600580546001600160a01b0319169055565b6005546001600160a01b031633146124b65760405162461bcd60e51b81526004016110179061491a565b600d546040516318df5db960e31b8152600481018390526001600160a01b039091169063c6faedc890602401611c05565b6005546001600160a01b031633146125115760405162461bcd60e51b81526004016110179061491a565b600d5460405163cece91eb60e01b8152600481018390526001600160a01b039091169063cece91eb90602401611c05565b600d60009054906101000a90046001600160a01b03166001600160a01b03166388fe65536040518163ffffffff1660e01b8152600401606060405180830381600087803b15801561259257600080fd5b505af11580156125a6573d6000803e3d6000fd5b505050506040513d601f19601f82011682018060405250810190611b659190614745565b6005546001600160a01b031633146125f45760405162461bcd60e51b81526004016110179061491a565b601581905560145460135461104191839161103b916135fe565b6000600a828154811061263157634e487b7160e01b600052603260045260246000fd5b6000918252602090912001546001600160a01b031692915050565b6005546001600160a01b031633146126765760405162461bcd60e51b81526004016110179061491a565b601855565b6003815111801561268d575060208151105b6126d95760405162461bcd60e51b815260206004820181905260248201527f4e4f4445204352454154494f4e3a204e414d452053495a4520494e56414c49446044820152606401611017565b338061273e5760405162461bcd60e51b815260206004820152602e60248201527f4e4f4445204352454154494f4e3a20206372656174696f6e2066726f6d20746860448201526d65207a65726f206164647265737360901b6064820152608401611017565b6001600160a01b0381166000908152601d602052604090205460ff16156127b25760405162461bcd60e51b815260206004820152602260248201527f4e4f4445204352454154494f4e3a20426c61636b6c6973746564206164647265604482015261737360f01b6064820152608401611017565b6010546001600160a01b038281169116148015906127de57506011546001600160a01b03828116911614155b6128505760405162461bcd60e51b815260206004820152603760248201527f4e4f4445204352454154494f4e3a20667574757220616e64207265776172647360448201527f506f6f6c2063616e6e6f7420637265617465206e6f64650000000000000000006064820152608401611017565b600d5460408051631e3fd85760e31b815290516000926001600160a01b03169163f1fec2b8916004808301926020929190829003018186803b15801561289557600080fd5b505afa1580156128a9573d6000803e3d6000fd5b505050506040513d601f19601f820116820180604052508101906128cd919061472d565b9050806128ef836001600160a01b031660009081526020819052604090205490565b10156129525760405162461bcd60e51b815260206004820152602c60248201527f4e4f4445204352454154494f4e3a2042616c616e636520746f6f206c6f77206660448201526b37b91031b932b0ba34b7b71760a11b6064820152608401611017565b30600090815260208190526040902054601a548110801590819061297d5750601954610100900460ff165b801561298c575060195460ff16155b80156129a657506005546001600160a01b03858116911614155b80156129cb57506001600160a01b0384166000908152601e602052604090205460ff16155b15612ad1576019805460ff191660011790556015546000906129f590606490611a8b908690613beb565b601054909150612a0e906001600160a01b031682613db5565b6000612a2a6064611a8b60135487613beb90919063ffffffff16565b90506000612a486064611a8b60185485613beb90919063ffffffff16565b601154909150612a61906001600160a01b031682613db5565b601154612a829030906001600160a01b0316612a7d8585613e04565b613cac565b6000612a9e6064611a8b60145489613beb90919063ffffffff16565b9050612aa981613e46565b30600090815260208190526040902054612ac290613ecd565b50506019805460ff1916905550505b612adc843085613cac565b600d546040516312b8603f60e01b81526001600160a01b03909116906312b8603f90612b0e90879089906004016147ba565b600060405180830381600087803b158015612b2857600080fd5b505af1158015612b3c573d6000803e3d6000fd5b505050505050505050565b6005546001600160a01b03163314612b715760405162461bcd60e51b81526004016110179061491a565b601180546001600160a01b0319166001600160a01b0392909216919091179055565b606060048054610f6a90614af7565b6005546001600160a01b03163314612bcc5760405162461bcd60e51b81526004016110179061491a565b600f546001600160a01b0383811691161415612c635760405162461bcd60e51b815260206004820152604a60248201527f544b4e3a205468652050616e63616b655377617020706169722063616e6e6f7460448201527f2062652072656d6f7665642066726f6d206175746f6d617465644d61726b65746064820152694d616b6572506169727360b01b608482015260a401611017565b61158b8282614052565b6005546001600160a01b03163314612c975760405162461bcd60e51b81526004016110179061491a565b600d5460405163d1871a8960e01b8152600481018390526001600160a01b039091169063d1871a8990602401611c05565b600d546040805163b8527aef60e01b815290516000926001600160a01b03169163b8527aef916004808301926020929190829003018186803b15801561117357600080fd5b600061105433846114d685604051806060016040528060258152602001614bd0602591393360009081526001602090815260408083206001600160a01b038d1684529091529020549190613b5f565b600d5460408051631e3fd85760e31b815290516000926001600160a01b03169163f1fec2b8916004808301926020929190829003018186803b15801561117357600080fd5b60006110543384846138e1565b6005546001600160a01b03163314612dd85760405162461bcd60e51b81526004016110179061491a565b60008111612e195760405162461bcd60e51b815260206004820152600e60248201526d416d6f756e7420746f6f206c6f7760901b6044820152606401611017565b601154612e2f906001600160a01b03168261413b565b50565b6005546000906001600160a01b03163314612e5f5760405162461bcd60e51b81526004016110179061491a565b600d546040516330cd31af60e11b81526001600160a01b0384811660048301529091169063619a635e906024015b60206040518083038186803b158015612ea557600080fd5b505afa158015612eb9573d6000803e3d6000fd5b505050506040513d601f19601f82011682018060405250810190611058919061472d565b606033612efc5760405162461bcd60e51b81526004016110179061485b565b600d546001600160a01b03166341ac82b0336040516001600160e01b031960e084901b1681526001600160a01b03909116600482015260240160206040518083038186803b158015612f4d57600080fd5b505afa158015612f61573d6000803e3d6000fd5b505050506040513d601f19601f82011682018060405250810190612f859190614604565b612fa15760405162461bcd60e51b815260040161101790614834565b600d546001600160a01b031663c92819ce336112d3565b6005546001600160a01b03163314612fe25760405162461bcd60e51b81526004016110179061491a565b601b55565b6005546001600160a01b031633146130115760405162461bcd60e51b81526004016110179061491a565b601c5460ff16156130645760405162461bcd60e51b815260206004820152601760248201527f54726164696e6720697320616c7265616479206f70656e0000000000000000006044820152606401611017565b601c805460ff19166001179055565b6005546001600160a01b0316331461309d5760405162461bcd60e51b81526004016110179061491a565b6001600160a01b03919091166000908152601f60205260409020805460ff1916911515919091179055565b6005546001600160a01b031633146130f25760405162461bcd60e51b81526004016110179061491a565b600d54604051636d58441560e11b815282151560048201526001600160a01b039091169063dab0882a90602401611c05565b6005546001600160a01b0316331461314e5760405162461bcd60e51b81526004016110179061491a565b6001600160a01b03919091166000908152601d60205260409020805460ff1916911515919091179055565b600d546040805163fb10d6fb60e01b815290516000926001600160a01b03169163fb10d6fb916004808301926020929190829003018186803b15801561117357600080fd5b600d546040805163613ff46f60e01b815290516000926001600160a01b03169163613ff46f916004808301926020929190829003018186803b15801561117357600080fd5b6040516323b872dd60e01b815233600482015261dead6024820181905260448201839052738f37980d44f7487851346f4a5e5114d6b03dcf0a9182906323b872dd90606401602060405180830381600087803b15801561326257600080fd5b505af1158015613276573d6000803e3d6000fd5b505050506040513d601f19601f8201168201806040525081019061329a9190614604565b50601154611b65906001600160a01b03163385613cac565b6060336132d15760405162461bcd60e51b81526004016110179061485b565b600d546001600160a01b03166341ac82b0336040516001600160e01b031960e084901b1681526001600160a01b03909116600482015260240160206040518083038186803b15801561332257600080fd5b505afa158015613336573d6000803e3d6000fd5b505050506040513d601f19601f8201168201806040525081019061335a9190614604565b6133765760405162461bcd60e51b815260040161101790614834565b600d546001600160a01b0316635759fb02336112d3565b6005546001600160a01b031633146133b75760405162461bcd60e51b81526004016110179061491a565b6001600160a01b03811661341c5760405162461bcd60e51b815260206004820152602660248201527f4f776e61626c653a206e6577206f776e657220697320746865207a65726f206160448201526564647265737360d01b6064820152608401611017565b6005546040516001600160a01b038084169216907f8be0079c531659141344cd1fd0a4f28419497f9722a3daafe3b4186f6b6457e090600090a3600580546001600160a01b0319166001600160a01b0392909216919091179055565b600d54604080516327b3bf1160e01b815290516000926001600160a01b0316916327b3bf11916004808301926020929190829003018186803b15801561117357600080fd5b600d5460405163112469f960e21b81526001600160a01b0383811660048301526000921690634491a7e490602401612e8d565b600d5460408051636f60a39360e11b815290516000926001600160a01b03169163dec14726916004808301926020929190829003018186803b15801561117357600080fd5b600d54604080516385c44d9d60e01b815290516000926001600160a01b0316916385c44d9d916004808301926020929190829003018186803b15801561357a57600080fd5b505afa15801561358e573d6000803e3d6000fd5b505050506040513d601f19601f820116820180604052508101906111ab9190614604565b6005546001600160a01b031633146135dc5760405162461bcd60e51b81526004016110179061491a565b600d80546001600160a01b0319166001600160a01b0392909216919091179055565b60008061360b8385614a5d565b9050838110156114df5760405162461bcd60e51b815260206004820152601b60248201527f536166654d6174683a206164646974696f6e206f766572666c6f7700000000006044820152606401611017565b6001600160a01b0383166136bf5760405162461bcd60e51b8152602060048201526024808201527f45524332303a20617070726f76652066726f6d20746865207a65726f206164646044820152637265737360e01b6064820152608401611017565b6001600160a01b0382166137205760405162461bcd60e51b815260206004820152602260248201527f45524332303a20617070726f766520746f20746865207a65726f206164647265604482015261737360f01b6064820152608401611017565b6001600160a01b0383811660008181526001602090815260408083209487168084529482529182902085905590518481527f8c5be1e5ebec7d5bd14f71427d1e84f3dd0314c0f7b2291e5b200ac8c7c3b92591015b60405180910390a3505050565b6006546001600160a01b038416600090815260086020526040812054909183916137ac9086614a95565b6137b69190614a75565b6137c09190614ab4565b949350505050565b804710156138185760405162461bcd60e51b815260206004820152601d60248201527f416464726573733a20696e73756666696369656e742062616c616e63650000006044820152606401611017565b6000826001600160a01b03168260405160006040518083038185875af1925050503d8060008114613865576040519150601f19603f3d011682016040523d82523d6000602084013e61386a565b606091505b5050905080611b655760405162461bcd60e51b815260206004820152603a60248201527f416464726573733a20756e61626c6520746f2073656e642076616c75652c207260448201527f6563697069656e74206d617920686176652072657665727465640000000000006064820152608401611017565b6001600160a01b0383166139075760405162461bcd60e51b81526004016110179061494f565b6001600160a01b03821661392d5760405162461bcd60e51b8152600401611017906147f1565b6001600160a01b0383166000908152601d602052604090205460ff1615801561396f57506001600160a01b0382166000908152601d602052604090205460ff16155b6139b15760405162461bcd60e51b8152602060048201526013602482015272426c61636b6c6973746564206164647265737360681b6044820152606401611017565b6005546001600160a01b038481169116148015906139dd57506005546001600160a01b03838116911614155b80156139f257506001600160a01b0383163014155b8015613a0757506001600160a01b0382163014155b8015613a2c57506001600160a01b0383166000908152601f602052604090205460ff16155b8015613a5157506001600160a01b0382166000908152601f602052604090205460ff16155b8015613a6b5750600f546001600160a01b03838116911614155b8015613a855750600e546001600160a01b03838116911614155b15613b5457601c5460ff1615613b0b576001600160a01b038216600090815260208190526040902054601b54613abb83836135fe565b1115613b095760405162461bcd60e51b815260206004820152601860248201527f5472616e7366657220616d6f756e7420746f6f206869676800000000000000006044820152606401611017565b505b601c5460ff16158015613b2b5750600f546001600160a01b038481169116145b15613b54576001600160a01b0382166000908152601d60205260409020805460ff191660011790555b611b65838383613cac565b60008184841115613b835760405162461bcd60e51b815260040161101791906147de565b506000613b908486614ab4565b95945050505050565b604080516001600160a01b038416602482015260448082018490528251808303909101815260649091019091526020810180516001600160e01b031663a9059cbb60e01b179052611b65908490614219565b600082613bfa57506000611058565b6000613c068385614a95565b905082613c138583614a75565b146114df5760405162461bcd60e51b815260206004820152602160248201527f536166654d6174683a206d756c7469706c69636174696f6e206f766572666c6f6044820152607760f81b6064820152608401611017565b60006114df83836040518060400160405280601a81526020017f536166654d6174683a206469766973696f6e206279207a65726f0000000000008152506142eb565b6001600160a01b038316613cd25760405162461bcd60e51b81526004016110179061494f565b6001600160a01b038216613cf85760405162461bcd60e51b8152600401611017906147f1565b613d3581604051806060016040528060268152602001614b82602691396001600160a01b0386166000908152602081905260409020549190613b5f565b6001600160a01b038085166000908152602081905260408082209390935590841681522054613d6490826135fe565b6001600160a01b038381166000818152602081815260409182902094909455518481529092918616917fddf252ad1be2c89b69c2b068fc378daa952ba7f163c4a11628f55a4df523b3ef9101613775565b47613dbf82613ecd565b6000613dcb4783613e04565b6040519091506001600160a01b0385169082156108fc029083906000818181858888f19350505050158015611c33573d6000803e3d6000fd5b60006114df83836040518060400160405280601e81526020017f536166654d6174683a207375627472616374696f6e206f766572666c6f770000815250613b5f565b6000613e53826002613c6a565b90506000613e618383613e04565b905047613e6d83613ecd565b6000613e794783613e04565b9050613e858382614319565b60408051858152602081018390529081018490527f17bbfb9a6069321b6ded73bd96327c9e6b7212a5cd51ff219cd61370acafb5619060600160405180910390a15050505050565b6040805160028082526060820183526000926020830190803683370190505090503081600081518110613f1057634e487b7160e01b600052603260045260246000fd5b6001600160a01b03928316602091820292909201810191909152600e54604080516339d94ae160e11b8152905191909316926373b295c2926004808301939192829003018186803b158015613f6457600080fd5b505afa158015613f78573d6000803e3d6000fd5b505050506040513d601f19601f82011682018060405250810190613f9c91906144fc565b81600181518110613fbd57634e487b7160e01b600052603260045260246000fd5b6001600160a01b039283166020918202929092010152600e54613fe3913091168461365d565b600e54604051633b158ab160e11b81526001600160a01b039091169063762b15629061401c908590600090869030904290600401614994565b600060405180830381600087803b15801561403657600080fd5b505af115801561404a573d6000803e3d6000fd5b505050505050565b6001600160a01b0382166000908152601e602052604090205460ff16151581151514156140e75760405162461bcd60e51b815260206004820152603d60248201527f544b4e3a204175746f6d61746564206d61726b6574206d616b6572207061697260448201527f20697320616c72656164792073657420746f20746861742076616c75650000006064820152608401611017565b6001600160a01b0382166000818152601e6020526040808220805460ff191685151590811790915590519092917fffa9187bf1f18bf477bd0ea1bcbb64e93b6a98132473929edfce215cd9b16fab91a35050565b6001600160a01b0382166141915760405162461bcd60e51b815260206004820152601f60248201527f45524332303a206d696e7420746f20746865207a65726f2061646472657373006044820152606401611017565b60025461419e90826135fe565b6002556001600160a01b0382166000908152602081905260409020546141c490826135fe565b6001600160a01b038316600081815260208181526040808320949094559251848152919290917fddf252ad1be2c89b69c2b068fc378daa952ba7f163c4a11628f55a4df523b3ef910160405180910390a35050565b600061426e826040518060400160405280602081526020017f5361666545524332303a206c6f772d6c6576656c2063616c6c206661696c6564815250856001600160a01b03166143d59092919063ffffffff16565b805190915015611b65578080602001905181019061428c9190614604565b611b655760405162461bcd60e51b815260206004820152602a60248201527f5361666545524332303a204552433230206f7065726174696f6e20646964206e6044820152691bdd081cdd58d8d9595960b21b6064820152608401611017565b6000818361430c5760405162461bcd60e51b815260040161101791906147de565b506000613b908486614a75565b600e546143319030906001600160a01b03168461365d565b600e54601254604051637c8d9fb960e11b81523060048201526024810185905260006044820181905260648201526001600160a01b0391821660848201524260a482015291169063f91b3f7290839060c4016060604051808303818588803b15801561439c57600080fd5b505af11580156143b0573d6000803e3d6000fd5b50505050506040513d601f19601f82011682018060405250810190611c339190614745565b60606137c0848460008585843b61442e5760405162461bcd60e51b815260206004820152601d60248201527f416464726573733a2063616c6c20746f206e6f6e2d636f6e74726163740000006044820152606401611017565b600080866001600160a01b0316858760405161444a919061479e565b60006040518083038185875af1925050503d8060008114614487576040519150601f19603f3d011682016040523d82523d6000602084013e61448c565b606091505b509150915061449c8282866144a7565b979650505050505050565b606083156144b65750816114df565b8251156144c65782518084602001fd5b8160405162461bcd60e51b815260040161101791906147de565b6000602082840312156144f1578081fd5b81356114df81614b5e565b60006020828403121561450d578081fd5b81516114df81614b5e565b6000806040838503121561452a578081fd5b823561453581614b5e565b9150602083013561454581614b5e565b809150509250929050565b600080600060608486031215614564578081fd5b833561456f81614b5e565b9250602084013561457f81614b5e565b929592945050506040919091013590565b600080604083850312156145a2578182fd5b82356145ad81614b5e565b9150602083013561454581614b73565b600080604083850312156145cf578182fd5b82356145da81614b5e565b946020939093013593505050565b6000602082840312156145f9578081fd5b81356114df81614b73565b600060208284031215614615578081fd5b81516114df81614b73565b6000806040838503121561452a578182fd5b600060208284031215614643578081fd5b813567ffffffffffffffff811115614659578182fd5b8201601f81018413614669578182fd5b803561467c61467782614a35565b614a04565b818152856020838501011115614690578384fd5b81602084016020830137908101602001929092525092915050565b6000602082840312156146bc578081fd5b815167ffffffffffffffff8111156146d2578182fd5b8201601f810184136146e2578182fd5b80516146f061467782614a35565b818152856020838501011115614704578384fd5b613b90826020830160208601614acb565b600060208284031215614726578081fd5b5035919050565b60006020828403121561473e578081fd5b5051919050565b600080600060608486031215614759578081fd5b8351925060208401519150604084015190509250925092565b6000815180845261478a816020860160208601614acb565b601f01601f19169290920160200192915050565b600082516147b0818460208701614acb565b9190910192915050565b6001600160a01b03831681526040602082018190526000906137c090830184614772565b6020815260006114df6020830184614772565b60208082526023908201527f45524332303a207472616e7366657220746f20746865207a65726f206164647260408201526265737360e81b606082015260800190565b6020808252600d908201526c2727902727a2229027aba722a960991b604082015260600190565b60208082526014908201527353454e4445522043414e2754204245205a45524f60601b604082015260600190565b60208082526026908201527f5061796d656e7453706c69747465723a206163636f756e7420686173206e6f2060408201526573686172657360d01b606082015260800190565b6020808252602b908201527f5061796d656e7453706c69747465723a206163636f756e74206973206e6f742060408201526a191d59481c185e5b595b9d60aa1b606082015260800190565b6020808252818101527f4f776e61626c653a2063616c6c6572206973206e6f7420746865206f776e6572604082015260600190565b60208082526025908201527f45524332303a207472616e736665722066726f6d20746865207a65726f206164604082015264647265737360d81b606082015260800190565b600060a082018783526020878185015260a0604085015281875180845260c0860191508289019350845b818110156149e35784516001600160a01b0316835293830193918301916001016149be565b50506001600160a01b03969096166060850152505050608001529392505050565b604051601f8201601f1916810167ffffffffffffffff81118282101715614a2d57614a2d614b48565b604052919050565b600067ffffffffffffffff821115614a4f57614a4f614b48565b50601f01601f191660200190565b60008219821115614a7057614a70614b32565b500190565b600082614a9057634e487b7160e01b81526012600452602481fd5b500490565b6000816000190483118215151615614aaf57614aaf614b32565b500290565b600082821015614ac657614ac6614b32565b500390565b60005b83811015614ae6578181015183820152602001614ace565b838111156122f05750506000910152565b600181811c90821680614b0b57607f821691505b60208210811415614b2c57634e487b7160e01b600052602260045260246000fd5b50919050565b634e487b7160e01b600052601160045260246000fd5b634e487b7160e01b600052604160045260246000fd5b6001600160a01b0381168114612e2f57600080fd5b8015158114612e2f57600080fdfe45524332303a207472616e7366657220616d6f756e7420657863656564732062616c616e636545524332303a207472616e7366657220616d6f756e74206578636565647320616c6c6f77616e636545524332303a2064656372656173656420616c6c6f77616e63652062656c6f77207a65726fa2646970667358221220d83a1c01fc2dad07fc8e6413a3f0e5ba9515835c0001dc46598f9e3654f43e5a64736f6c63430008040033",
  "linkReferences": {},
  "deployedLinkReferences": {}
}