{
  "_format": "hh-sol-artifact-1",
  "contractName": "NODERewardManagement",
  "sourceName": "contracts/Flat.sol",
  "abi": [
    {
      "inputs": [
        {
          "internalType": "uint256",
          "name": "_nodePrice",
          "type": "uint256"
        },
        {
          "internalType": "uint256",
          "name": "_rewardPerNode",
          "type": "uint256"
        },
        {
          "internalType": "uint256",
          "name": "_claimTime",
          "type": "uint256"
        }
      ],
      "stateMutability": "nonpayable",
      "type": "constructor"
    },
    {
      "inputs": [
        {
          "internalType": "address",
          "name": "account",
          "type": "address"
        }
      ],
      "name": "_cashoutAllNodesReward",
      "outputs": [
        {
          "internalType": "uint256",
          "name": "",
          "type": "uint256"
        }
      ],
      "stateMutability": "nonpayable",
      "type": "function"
    },
    {
      "inputs": [
        {
          "internalType": "address",
          "name": "account",
          "type": "address"
        },
        {
          "internalType": "uint256",
          "name": "_creationTime",
          "type": "uint256"
        }
      ],
      "name": "_cashoutNodeReward",
      "outputs": [
        {
          "internalType": "uint256",
          "name": "",
          "type": "uint256"
        }
      ],
      "stateMutability": "nonpayable",
      "type": "function"
    },
    {
      "inputs": [
        {
          "internalType": "bool",
          "name": "newMode",
          "type": "bool"
        }
      ],
      "name": "_changeAutoDistri",
      "outputs": [],
      "stateMutability": "nonpayable",
      "type": "function"
    },
    {
      "inputs": [
        {
          "internalType": "uint256",
          "name": "newTime",
          "type": "uint256"
        }
      ],
      "name": "_changeClaimTime",
      "outputs": [],
      "stateMutability": "nonpayable",
      "type": "function"
    },
    {
      "inputs": [
        {
          "internalType": "uint256",
          "name": "newGasDistri",
          "type": "uint256"
        }
      ],
      "name": "_changeGasDistri",
      "outputs": [],
      "stateMutability": "nonpayable",
      "type": "function"
    },
    {
      "inputs": [
        {
          "internalType": "uint256",
          "name": "newNodePrice",
          "type": "uint256"
        }
      ],
      "name": "_changeNodePrice",
      "outputs": [],
      "stateMutability": "nonpayable",
      "type": "function"
    },
    {
      "inputs": [
        {
          "internalType": "uint256",
          "name": "newPrice",
          "type": "uint256"
        }
      ],
      "name": "_changeRewardPerNode",
      "outputs": [],
      "stateMutability": "nonpayable",
      "type": "function"
    },
    {
      "inputs": [],
      "name": "_distributeRewards",
      "outputs": [
        {
          "internalType": "uint256",
          "name": "",
          "type": "uint256"
        },
        {
          "internalType": "uint256",
          "name": "",
          "type": "uint256"
        },
        {
          "internalType": "uint256",
          "name": "",
          "type": "uint256"
        }
      ],
      "stateMutability": "nonpayable",
      "type": "function"
    },
    {
      "inputs": [
        {
          "internalType": "address",
          "name": "account",
          "type": "address"
        }
      ],
      "name": "_getNodeNumberOf",
      "outputs": [
        {
          "internalType": "uint256",
          "name": "",
          "type": "uint256"
        }
      ],
      "stateMutability": "view",
      "type": "function"
    },
    {
      "inputs": [
        {
          "internalType": "address",
          "name": "account",
          "type": "address"
        },
        {
          "internalType": "uint256",
          "name": "creationTime",
          "type": "uint256"
        }
      ],
      "name": "_getNodeRewardAmountOf",
      "outputs": [
        {
          "internalType": "uint256",
          "name": "",
          "type": "uint256"
        }
      ],
      "stateMutability": "view",
      "type": "function"
    },
    {
      "inputs": [
        {
          "internalType": "address",
          "name": "account",
          "type": "address"
        }
      ],
      "name": "_getNodesCreationTime",
      "outputs": [
        {
          "internalType": "string",
          "name": "",
          "type": "string"
        }
      ],
      "stateMutability": "view",
      "type": "function"
    },
    {
      "inputs": [
        {
          "internalType": "address",
          "name": "account",
          "type": "address"
        }
      ],
      "name": "_getNodesLastClaimTime",
      "outputs": [
        {
          "internalType": "string",
          "name": "",
          "type": "string"
        }
      ],
      "stateMutability": "view",
      "type": "function"
    },
    {
      "inputs": [
        {
          "internalType": "address",
          "name": "account",
          "type": "address"
        }
      ],
      "name": "_getNodesNames",
      "outputs": [
        {
          "internalType": "string",
          "name": "",
          "type": "string"
        }
      ],
      "stateMutability": "view",
      "type": "function"
    },
    {
      "inputs": [
        {
          "internalType": "address",
          "name": "account",
          "type": "address"
        }
      ],
      "name": "_getNodesRewardAvailable",
      "outputs": [
        {
          "internalType": "string",
          "name": "",
          "type": "string"
        }
      ],
      "stateMutability": "view",
      "type": "function"
    },
    {
      "inputs": [
        {
          "internalType": "address",
          "name": "account",
          "type": "address"
        }
      ],
      "name": "_getRewardAmountOf",
      "outputs": [
        {
          "internalType": "uint256",
          "name": "",
          "type": "uint256"
        }
      ],
      "stateMutability": "view",
      "type": "function"
    },
    {
      "inputs": [
        {
          "internalType": "address",
          "name": "account",
          "type": "address"
        },
        {
          "internalType": "uint256",
          "name": "_creationTime",
          "type": "uint256"
        }
      ],
      "name": "_getRewardAmountOf",
      "outputs": [
        {
          "internalType": "uint256",
          "name": "",
          "type": "uint256"
        }
      ],
      "stateMutability": "view",
      "type": "function"
    },
    {
      "inputs": [
        {
          "internalType": "address",
          "name": "account",
          "type": "address"
        }
      ],
      "name": "_isNodeOwner",
      "outputs": [
        {
          "internalType": "bool",
          "name": "",
          "type": "bool"
        }
      ],
      "stateMutability": "view",
      "type": "function"
    },
    {
      "inputs": [],
      "name": "autoDistri",
      "outputs": [
        {
          "internalType": "bool",
          "name": "",
          "type": "bool"
        }
      ],
      "stateMutability": "view",
      "type": "function"
    },
    {
      "inputs": [],
      "name": "claimTime",
      "outputs": [
        {
          "internalType": "uint256",
          "name": "",
          "type": "uint256"
        }
      ],
      "stateMutability": "view",
      "type": "function"
    },
    {
      "inputs": [
        {
          "internalType": "address",
          "name": "account",
          "type": "address"
        },
        {
          "internalType": "string",
          "name": "nodeName",
          "type": "string"
        }
      ],
      "name": "createNode",
      "outputs": [],
      "stateMutability": "nonpayable",
      "type": "function"
    },
    {
      "inputs": [],
      "name": "distribution",
      "outputs": [
        {
          "internalType": "bool",
          "name": "",
          "type": "bool"
        }
      ],
      "stateMutability": "view",
      "type": "function"
    },
    {
      "inputs": [],
      "name": "gasForDistribution",
      "outputs": [
        {
          "internalType": "uint256",
          "name": "",
          "type": "uint256"
        }
      ],
      "stateMutability": "view",
      "type": "function"
    },
    {
      "inputs": [],
      "name": "gateKeeper",
      "outputs": [
        {
          "internalType": "address",
          "name": "",
          "type": "address"
        }
      ],
      "stateMutability": "view",
      "type": "function"
    },
    {
      "inputs": [],
      "name": "lastDistributionCount",
      "outputs": [
        {
          "internalType": "uint256",
          "name": "",
          "type": "uint256"
        }
      ],
      "stateMutability": "view",
      "type": "function"
    },
    {
      "inputs": [],
      "name": "lastIndexProcessed",
      "outputs": [
        {
          "internalType": "uint256",
          "name": "",
          "type": "uint256"
        }
      ],
      "stateMutability": "view",
      "type": "function"
    },
    {
      "inputs": [],
      "name": "nodePrice",
      "outputs": [
        {
          "internalType": "uint256",
          "name": "",
          "type": "uint256"
        }
      ],
      "stateMutability": "view",
      "type": "function"
    },
    {
      "inputs": [],
      "name": "rewardPerNode",
      "outputs": [
        {
          "internalType": "uint256",
          "name": "",
          "type": "uint256"
        }
      ],
      "stateMutability": "view",
      "type": "function"
    },
    {
      "inputs": [
        {
          "internalType": "address",
          "name": "token_",
          "type": "address"
        }
      ],
      "name": "setToken",
      "outputs": [],
      "stateMutability": "nonpayable",
      "type": "function"
    },
    {
      "inputs": [],
      "name": "token",
      "outputs": [
        {
          "internalType": "address",
          "name": "",
          "type": "address"
        }
      ],
      "stateMutability": "view",
      "type": "function"
    },
    {
      "inputs": [],
      "name": "totalNodesCreated",
      "outputs": [
        {
          "internalType": "uint256",
          "name": "",
          "type": "uint256"
        }
      ],
      "stateMutability": "view",
      "type": "function"
    },
    {
      "inputs": [],
      "name": "totalRewardStaked",
      "outputs": [
        {
          "internalType": "uint256",
          "name": "",
          "type": "uint256"
        }
      ],
      "stateMutability": "view",
      "type": "function"
    }
  ],
  "bytecode": "0x60806040526009805461ffff60a01b1916600160a01b1790556207a120600a556000600b819055600c819055600d819055600e553480156200004057600080fd5b5060405162002680380380620026808339810160408190526200006391620000ae565b6200007783670de0b6b3a7640000620000dc565b6005556200008e8267016345785d8a0000620000dc565b6006556007555050600880546001600160a01b0319163317905562000108565b600080600060608486031215620000c3578283fd5b8351925060208401519150604084015190509250925092565b60008160001904831182151516156200010357634e487b7160e01b81526011600452602481fd5b500290565b61256880620001186000396000f3fe608060405234801561001057600080fd5b50600436106101e55760003560e01c8063724765771161010f578063cece91eb116100a2578063ef9bb98811610071578063ef9bb9881461040b578063f1fec2b81461041e578063fb10d6fb14610427578063fc0c546a1461043057600080fd5b8063cece91eb146103c9578063d1871a89146103dc578063dab0882a146103ef578063dec147261461040257600080fd5b8063a6e15cc4116100de578063a6e15cc414610387578063b8527aef1461039a578063c6faedc8146103a3578063c92819ce146103b657600080fd5b8063724765771461033e57806385c44d9d1461034757806388fe65531461035b5780638a327eaa1461037e57600080fd5b80634a389fae11610187578063613ff46f11610156578063613ff46f146102fc578063619a635e146103055780636590c691146103185780636edb70021461032b57600080fd5b80634a389fae146102af5780635759fb02146102c25780635c298b1c146102d55780635ee58efc146102e857600080fd5b8063334de3a2116101c3578063334de3a21461022e57806341ac82b01461024e5780634491a7e41461027157806345d61ded1461028457600080fd5b806312b8603f146101ea578063144fa6d7146101ff57806327b3bf1114610212575b600080fd5b6101fd6101f8366004612189565b610443565b005b6101fd61020d36600461216f565b610643565b61021b60075481565b6040519081526020015b60405180910390f35b61024161023c36600461216f565b6106a4565b6040516102259190612302565b61026161025c36600461216f565b61091b565b6040519015158152602001610225565b61021b61027f36600461216f565b61092c565b600854610297906001600160a01b031681565b6040516001600160a01b039091168152602001610225565b6102416102bd36600461216f565b6109c1565b6102416102d036600461216f565b610c33565b61021b6102e336600461216f565b610ea5565b60095461026190600160a81b900460ff1681565b61021b60065481565b61021b61031336600461216f565b610f92565b61021b610326366004612246565b61106a565b61021b610339366004612246565b611097565b61021b600c5481565b60095461026190600160a01b900460ff1681565b610363611150565b60408051938452602084019290925290820152606001610225565b61021b600e5481565b61021b610395366004612246565b6111af565b61021b600d5481565b6101fd6103b136600461228f565b611277565b6102416103c436600461216f565b6112bb565b6101fd6103d736600461228f565b61152d565b6101fd6103ea36600461228f565b611571565b6101fd6103fd36600461226f565b6115b5565b61021b600a5481565b6101fd61041936600461228f565b611612565b61021b60055481565b61021b600b5481565b600954610297906001600160a01b031681565b6009546001600160a01b031633148061046657506008546001600160a01b031633145b61048b5760405162461bcd60e51b8152600401610482906123cb565b60405180910390fd5b6104958282611656565b6104e15760405162461bcd60e51b815260206004820152601f60248201527f435245415445204e4f44453a204e616d65206e6f7420617661696c61626c65006044820152606401610482565b6001600160a01b0382166000908152600460208181526040808420815160808101835286815242818501819052928101929092526060820185905280546001810182559085529382902081518051929590940201926105449284929101906120bf565b50602082810151600183015560408084015160028401556060909301516003909201919091556001600160a01b0384166000818152600492839052838120549351632f0ad01760e21b8152928301526024820152604481019190915273__$1849295613305fb1466685ec32748fc438$__9063bc2b405c9060640160006040518083038186803b1580156105d757600080fd5b505af41580156105eb573d6000803e3d6000fd5b5050600d8054925090506000610600836124eb565b9091555050600954600160a01b900460ff1680156106285750600954600160a81b900460ff16155b1561063f5761063b600a546006546117e6565b5050505b5050565b6009546001600160a01b031633148061066657506008546001600160a01b031633145b6106825760405162461bcd60e51b8152600401610482906123cb565b600980546001600160a01b0319166001600160a01b0392909216919091179055565b60606106af82611aba565b6106fb5760405162461bcd60e51b815260206004820152601860248201527f474554204e414d45533a204e4f204e4f4445204f574e455200000000000000006044820152606401610482565b6001600160a01b038216600090815260046020908152604080832080548251818502810185019093528083529192909190849084015b828210156108135783829060005260206000209060040201604051806080016040529081600082018054610764906124b0565b80601f0160208091040260200160405190810160405280929190818152602001828054610790906124b0565b80156107dd5780601f106107b2576101008083540402835291602001916107dd565b820191906000526020600020905b8154815290600101906020018083116107c057829003601f168201915b50505050508152602001600182015481526020016002820154815260200160038201548152505081526020019060010190610731565b50505050905060008151905061084a6040518060800160405280606081526020016000815260200160008152602001600081525090565b60008360008151811061086d57634e487b7160e01b600052603260045260246000fd5b60200260200101516000015190506000604051806040016040528060018152602001602360f81b81525090506000600190505b8481101561090f578581815181106108c857634e487b7160e01b600052603260045260246000fd5b60200260200101519350828285600001516040516020016108eb939291906122bf565b60405160208183030381529060405292508080610907906124eb565b9150506108a0565b50909695505050505050565b600061092682611aba565b92915050565b60405163732a2ccf60e01b81526000600482018190526001600160a01b03831660248301529073__$1849295613305fb1466685ec32748fc438$__9063732a2ccf9060440160206040518083038186803b15801561098957600080fd5b505af415801561099d573d6000803e3d6000fd5b505050506040513d601f19601f8201168201806040525081019061092691906122a7565b60606109cc82611aba565b610a185760405162461bcd60e51b815260206004820152601960248201527f474554205245574152443a204e4f204e4f4445204f574e4552000000000000006044820152606401610482565b6001600160a01b038216600090815260046020908152604080832080548251818502810185019093528083529192909190849084015b82821015610b305783829060005260206000209060040201604051806080016040529081600082018054610a81906124b0565b80601f0160208091040260200160405190810160405280929190818152602001828054610aad906124b0565b8015610afa5780601f10610acf57610100808354040283529160200191610afa565b820191906000526020600020905b815481529060010190602001808311610add57829003601f168201915b50505050508152602001600182015481526020016002820154815260200160038201548152505081526020019060010190610a4e565b505050509050600081519050610b676040518060800160405280606081526020016000815260200160008152602001600081525090565b6000610b9e84600081518110610b8d57634e487b7160e01b600052603260045260246000fd5b602002602001015160600151611b58565b604080518082019091526001808252602360f81b6020830152919250905b8481101561090f57858181518110610be457634e487b7160e01b600052603260045260246000fd5b602002602001015193508282610bfd8660600151611b58565b604051602001610c0f939291906122bf565b60405160208183030381529060405292508080610c2b906124eb565b915050610bbc565b6060610c3e82611aba565b610c8a5760405162461bcd60e51b815260206004820152601f60248201527f4c41535420434c41494d452054494d453a204e4f204e4f4445204f574e4552006044820152606401610482565b6001600160a01b038216600090815260046020908152604080832080548251818502810185019093528083529192909190849084015b82821015610da25783829060005260206000209060040201604051806080016040529081600082018054610cf3906124b0565b80601f0160208091040260200160405190810160405280929190818152602001828054610d1f906124b0565b8015610d6c5780601f10610d4157610100808354040283529160200191610d6c565b820191906000526020600020905b815481529060010190602001808311610d4f57829003601f168201915b50505050508152602001600182015481526020016002820154815260200160038201548152505081526020019060010190610cc0565b505050509050600081519050610dd96040518060800160405280606081526020016000815260200160008152602001600081525090565b6000610e1084600081518110610dff57634e487b7160e01b600052603260045260246000fd5b602002602001015160400151611b58565b604080518082019091526001808252602360f81b6020830152919250905b8481101561090f57858181518110610e5657634e487b7160e01b600052603260045260246000fd5b602002602001015193508282610e6f8660400151611b58565b604051602001610e81939291906122bf565b60405160208183030381529060405292508080610e9d906124eb565b915050610e2e565b6009546000906001600160a01b0316331480610ecb57506008546001600160a01b031633145b610ee75760405162461bcd60e51b8152600401610482906123cb565b6001600160a01b0382166000908152600460205260409020805480610f1e5760405162461bcd60e51b815260040161048290612335565b600080805b83811015610f8657848181548110610f4b57634e487b7160e01b600052603260045260246000fd5b90600052602060002090600402019250826003015482610f6b91906123ed565b60006003850155915080610f7e816124eb565b915050610f23565b5093505050505b919050565b6000610f9d82611aba565b610fe95760405162461bcd60e51b815260206004820152601c60248201527f47455420524557415244204f463a204e4f204e4f4445204f574e4552000000006044820152606401610482565b6001600160a01b038216600090815260046020526040812080549190815b838110156110605781818154811061102f57634e487b7160e01b600052603260045260246000fd5b9060005260206000209060040201600301548361104c91906123ed565b925080611058816124eb565b915050611007565b5090949350505050565b6001600160a01b038216600090815260046020526040812061108c9083611c9d565b600301549392505050565b6009546000906001600160a01b03163314806110bd57506008546001600160a01b031633145b6110d95760405162461bcd60e51b8152600401610482906123cb565b600082116110f95760405162461bcd60e51b815260040161048290612335565b6001600160a01b03831660009081526004602052604090208054806111305760405162461bcd60e51b81526004016104829061237c565b600061113c8386611c9d565b600301805460009091559695505050505050565b600954600090819081906001600160a01b031633148061117a57506008546001600160a01b031633145b6111965760405162461bcd60e51b8152600401610482906123cb565b6111a4600a546006546117e6565b925092509250909192565b60006111ba83611aba565b6112065760405162461bcd60e51b815260206004820152601c60248201527f47455420524557415244204f463a204e4f204e4f4445204f574e4552000000006044820152606401610482565b600082116112265760405162461bcd60e51b815260040161048290612335565b6001600160a01b038316600090815260046020526040902080548061125d5760405162461bcd60e51b81526004016104829061237c565b60006112698386611c9d565b600301549695505050505050565b6009546001600160a01b031633148061129a57506008546001600160a01b031633145b6112b65760405162461bcd60e51b8152600401610482906123cb565b600655565b60606112c682611aba565b6113125760405162461bcd60e51b815260206004820152601b60248201527f474554204352454154494d453a204e4f204e4f4445204f574e455200000000006044820152606401610482565b6001600160a01b038216600090815260046020908152604080832080548251818502810185019093528083529192909190849084015b8282101561142a578382906000526020600020906004020160405180608001604052908160008201805461137b906124b0565b80601f01602080910402602001604051908101604052809291908181526020018280546113a7906124b0565b80156113f45780601f106113c9576101008083540402835291602001916113f4565b820191906000526020600020905b8154815290600101906020018083116113d757829003601f168201915b50505050508152602001600182015481526020016002820154815260200160038201548152505081526020019060010190611348565b5050505090506000815190506114616040518060800160405280606081526020016000815260200160008152602001600081525090565b60006114988460008151811061148757634e487b7160e01b600052603260045260246000fd5b602002602001015160200151611b58565b604080518082019091526001808252602360f81b6020830152919250905b8481101561090f578581815181106114de57634e487b7160e01b600052603260045260246000fd5b6020026020010151935082826114f78660200151611b58565b604051602001611509939291906122bf565b60405160208183030381529060405292508080611525906124eb565b9150506114b6565b6009546001600160a01b031633148061155057506008546001600160a01b031633145b61156c5760405162461bcd60e51b8152600401610482906123cb565b600555565b6009546001600160a01b031633148061159457506008546001600160a01b031633145b6115b05760405162461bcd60e51b8152600401610482906123cb565b600755565b6009546001600160a01b03163314806115d857506008546001600160a01b031633145b6115f45760405162461bcd60e51b8152600401610482906123cb565b60098054911515600160a01b0260ff60a01b19909216919091179055565b6009546001600160a01b031633148061163557506008546001600160a01b031633145b6116515760405162461bcd60e51b8152600401610482906123cb565b600a55565b6001600160a01b038216600090815260046020908152604080832080548251818502810185019093528083528493849084015b8282101561176b57838290600052602060002090600402016040518060800160405290816000820180546116bc906124b0565b80601f01602080910402602001604051908101604052809291908181526020018280546116e8906124b0565b80156117355780601f1061170a57610100808354040283529160200191611735565b820191906000526020600020905b81548152906001019060200180831161171857829003601f168201915b50505050508152602001600182015481526020016002820154815260200160038201548152505081526020019060010190611689565b50505050905060005b81518110156117db5783805190602001208282815181106117a557634e487b7160e01b600052603260045260246000fd5b6020026020010151600001518051906020012014156117c957600092505050610926565b806117d3816124eb565b915050611774565b506001949350505050565b6009805460ff60a81b1916600160a81b17905560008054819081908061184e5760405162461bcd60e51b815260206004820152601e60248201527f44495354524920524557415244533a204e4f204e4f4445204f574e45525300006044820152606401610482565b80611864575050600c5460009250829150611ab3565b6000805a600c549091506000908142818080805b8f8a10801561188657508a86105b15611a8f5786611895816124eb565b600054909850881090506118a857600096505b600460008060000189815481106118cf57634e487b7160e01b600052603260045260246000fd5b60009182526020808320909101546001600160a01b0316835282019290925260400181208054955092505b84811015611a575782818154811061192257634e487b7160e01b600052603260045260246000fd5b906000526020600020906004020191506119f682604051806080016040529081600082018054611951906124b0565b80601f016020809104026020016040519081016040528092919081815260200182805461197d906124b0565b80156119ca5780601f1061199f576101008083540402835291602001916119ca565b820191906000526020600020905b8154815290600101906020018083116119ad57829003601f168201915b505050505081526020016001820154815260200160028201548152602001600382015481525050611e85565b15611a45578f826003016000828254611a0f91906123ed565b925050819055508582600201819055508f600e6000828254611a3191906123ed565b90915550849050611a41816124eb565b9450505b80611a4f816124eb565b9150506118fa565b5085611a62816124eb565b9650505a975087891115611a8757611a84611a7d8a8a611ea2565b8b90611eeb565b99505b879850611878565b5050600c8590556009805460ff60a81b19169055929a509198509196505050505050505b9250925092565b60405163732a2ccf60e01b81526000600482018190526001600160a01b038316602483015290819073__$1849295613305fb1466685ec32748fc438$__9063732a2ccf9060440160206040518083038186803b158015611b1957600080fd5b505af4158015611b2d573d6000803e3d6000fd5b505050506040513d601f19601f82011682018060405250810190611b5191906122a7565b1192915050565b606081611b7c5750506040805180820190915260018152600360fc1b602082015290565b8160005b8115611ba65780611b90816124eb565b9150611b9f9050600a8361242a565b9150611b80565b60008167ffffffffffffffff811115611bcf57634e487b7160e01b600052604160045260246000fd5b6040519080825280601f01601f191660200182016040528015611bf9576020820181803683370190505b509050815b8515611c9457611c0f600182612469565b90506000611c1e600a8861242a565b611c2990600a61244a565b611c339088612469565b611c3e906030612405565b905060008160f81b905080848481518110611c6957634e487b7160e01b600052603260045260246000fd5b60200101906001600160f81b031916908160001a905350611c8b600a8961242a565b97505050611bfe565b50949350505050565b815460009080611cbf5760405162461bcd60e51b81526004016104829061237c565b600080611dd586805480602002602001604051908101604052809291908181526020016000905b82821015611dc85783829060005260206000209060040201604051806080016040529081600082018054611d19906124b0565b80601f0160208091040260200160405190810160405280929190818152602001828054611d45906124b0565b8015611d925780601f10611d6757610100808354040283529160200191611d92565b820191906000526020600020905b815481529060010190602001808311611d7557829003601f168201915b50505050508152602001600182015481526020016002820154815260200160038201548152505081526020019060010190611ce6565b5050505060008588611f4a565b90506000808212611de7575060019150805b82611e4b5760405162461bcd60e51b815260206004820152602e60248201527f4e4f4445205345415243483a204e6f204e4f444520466f756e6420776974682060448201526d7468697320626c6f636b74696d6560901b6064820152608401610482565b868181548110611e6b57634e487b7160e01b600052603260045260246000fd5b906000526020600020906004020194505050505092915050565b6000426007548360400151611e9a91906123ed565b111592915050565b6000611ee483836040518060400160405280601e81526020017f536166654d6174683a207375627472616374696f6e206f766572666c6f77000081525061201a565b9392505050565b600080611ef883856123ed565b905083811015611ee45760405162461bcd60e51b815260206004820152601b60248201527f536166654d6174683a206164646974696f6e206f766572666c6f7700000000006044820152606401610482565b600083831061200d576000611f6a6002611f6487876123ed565b90612054565b905082868281518110611f8d57634e487b7160e01b600052603260045260246000fd5b6020026020010151602001511415611fa6579050612012565b82868281518110611fc757634e487b7160e01b600052603260045260246000fd5b6020026020010151602001511115611ff757611fef8686611fe9600185612469565b86611f4a565b915050612012565b611fef866120068360016123ed565b8686611f4a565b506000195b949350505050565b6000818484111561203e5760405162461bcd60e51b81526004016104829190612302565b50600061204b8486612469565b95945050505050565b6000611ee483836040518060400160405280601a81526020017f536166654d6174683a206469766973696f6e206279207a65726f000000000000815250600081836120b25760405162461bcd60e51b81526004016104829190612302565b50600061204b848661242a565b8280546120cb906124b0565b90600052602060002090601f0160209004810192826120ed5760008555612133565b82601f1061210657805160ff1916838001178555612133565b82800160010185558215612133579182015b82811115612133578251825591602001919060010190612118565b5061213f929150612143565b5090565b5b8082111561213f5760008155600101612144565b80356001600160a01b0381168114610f8d57600080fd5b600060208284031215612180578081fd5b611ee482612158565b6000806040838503121561219b578081fd5b6121a483612158565b9150602083013567ffffffffffffffff808211156121c0578283fd5b818501915085601f8301126121d3578283fd5b8135818111156121e5576121e561251c565b604051601f8201601f19908116603f0116810190838211818310171561220d5761220d61251c565b81604052828152886020848701011115612225578586fd5b82602086016020830137856020848301015280955050505050509250929050565b60008060408385031215612258578182fd5b61226183612158565b946020939093013593505050565b600060208284031215612280578081fd5b81358015158114611ee4578182fd5b6000602082840312156122a0578081fd5b5035919050565b6000602082840312156122b8578081fd5b5051919050565b600084516122d1818460208901612480565b8451908301906122e5818360208901612480565b84519101906122f8818360208801612480565b0195945050505050565b6020815260008251806020840152612321816040850160208701612480565b601f01601f19169190910160400192915050565b60208082526027908201527f4e4f44453a204352454154494d45206d75737420626520686967686572207468604082015266616e207a65726f60c81b606082015260800190565b6020808252602f908201527f434153484f5554204552524f523a20596f7520646f6e27742068617665206e6f60408201526e19195cc81d1bc818d85cda0b5bdd5d608a1b606082015260800190565b602080825260089082015267233ab1b59037b33360c11b604082015260600190565b6000821982111561240057612400612506565b500190565b600060ff821660ff84168060ff0382111561242257612422612506565b019392505050565b60008261244557634e487b7160e01b81526012600452602481fd5b500490565b600081600019048311821515161561246457612464612506565b500290565b60008282101561247b5761247b612506565b500390565b60005b8381101561249b578181015183820152602001612483565b838111156124aa576000848401525b50505050565b600181811c908216806124c457607f821691505b602082108114156124e557634e487b7160e01b600052602260045260246000fd5b50919050565b60006000198214156124ff576124ff612506565b5060010190565b634e487b7160e01b600052601160045260246000fd5b634e487b7160e01b600052604160045260246000fdfea2646970667358221220d7c7cb134013c2555806339d4699422eb9f9a0b93c9ad712b6f772b4129052e564736f6c63430008040033",
  "linkReferences": {
    "contracts/Flat.sol": {
      "IterableMapping": [
        {
          "length": 20,
          "start": 1722
        },
        {
          "length": 20,
          "start": 2668
        },
        {
          "length": 20,
          "start": 7164
        }
      ]
    }
  },
  "deployedLinkReferences": {
    "contracts/Flat.sol": {
      "IterableMapping": [
        {
          "length": 20,
          "start": 1442
        },
        {
          "length": 20,
          "start": 2388
        },
        {
          "length": 20,
          "start": 6884
        }
      ]
    }
  }
}